:020000040800F2
:1000000068090020CD0100080D0200080D0200085B
:1000100000000000000000000000000000000000E0
:100020000000000000000000000000000D020008B9
:1000300000000000000000000D0200080F02000890
:100040000D0200080D0200080D0200080D02000854
:100050000D0200080D0200080D0200080D02000844
:100060000D0200080D0200080D0200080D02000834
:100070000D0200080D0200080D0200080D02000824
:100080000D0200080D0200080D0200080D02000814
:100090000D0200080D0200080D0200080D02000804
:1000A0000D0200080D0200080D0200080D020008F4
:0400B0000D02000835
:1000B400002243088B4274D303098B425FD3030AA3
:1000C4008B4244D3030B8B4228D3030C8B420DD3B6
:1000D400FF22090212BA030C8B4202D31212090244
:1000E40065D0030B8B4219D300E0090AC30B8B4282
:1000F40001D3CB03C01A5241830B8B4201D38B0330
:10010400C01A5241430B8B4201D34B03C01A5241D4
:10011400030B8B4201D30B03C01A5241C30A8B4217
:1001240001D3CB02C01A5241830A8B4201D38B0202
:10013400C01A5241430A8B4201D34B02C01A5241A6
:10014400030A8B4201D30B02C01A5241CDD2C30918
:100154008B4201D3CB01C01A524183098B4201D394
:100164008B01C01A524143098B4201D34B01C01A7F
:10017400524103098B4201D30B01C01A5241C308F7
:100184008B4201D3CB00C01A524183088B4201D366
:100194008B00C01A524143088B4201D34B00C01A52
:1001A4005241411A00D20146524110467047FFE7BE
:1001B40001B5002000F006F802BDC0460029F7D0C2
:1001C40076E770477047C0460A480B490B4A00233C
:1001D40002E0D458C4500433C4188C42F9D30848FC
:1001E4000849002201E0026004308842FBD301F098
:1001F40015F8FEE700000020080000203C27000856
:100204000800002068010020FEE7704701220D4B22
:1002140019680A431A60022219681142FCD010209E
:1002240009490860D9690A43DA6100210722074BAA
:1002340019609A62064ADA6201225A6119611A60E7
:100244007047C046001002400020024000040040F5
:10025400E70300000023F0B501251E000849094CFE
:10026400834200D1F0BD0A692A42FCD00E612268A3
:10027400054F01322260054A01331760F0E7C0469A
:100284000004004008000020AAAA0000003000403A
:1002940001212F4BF0B59A692E4C0A439A618022B2
:1002A400D869520502432C48DA61026803272240C8
:1002B40002608022294C2A4D20682A4E90432060F7
:1002C400294C2A60206890432060284C2068104301
:1002D4002060274C22603068B843084330602548CA
:1002E4007F1806683E43066040BF20BF226020BFDF
:1002F4000668BE43066028689043286022601A6836
:100304001143196002211C4A1868084202D1013ABB
:10031400002AF9D10222D96900200A430721DA61AF
:10032400164A106091621649D1620121516110612F
:10033400116080229C69520122439A61114B124A36
:1003440018609A62114ADA62596118611960F0BD45
:1003540000100240FF0FFFFF0C00014000040140A9
:100364000404014000700040080401400C040140F2
:100374001404014010ED00E0400D030000040040AF
:10038400E7030000002C01403F1F0000FFFF0000B6
:1003940080220D4B5201996980200A4300219A6101
:1003A4000A4AC00111605B6803405842434108484F
:1003B4005B42034007481B189362074BD362012337
:1003C400536111611360704700100240002C01401A
:1003D400C063FFFF7FBB0000FFFF00000222054B4C
:1003E40099681142FCD0044A107080229968114225
:1003F400FCD17047002001400C2001400223034936
:100404008A681A42FCD0024B1870704700200140E1
:100414000C200140802210B5024B12049A61FFF7B0
:10042400DDFF10BD000C0140802210B5024B9A6123
:10043400FFF7D4FF10BDC046000C014083234049A0
:100444009B008A6910B513438B613E4B3E481A6882
:1004540002401A60802218685200024310201A6079
:100464005A6882435A60802252039A611A68374854
:1004740002401A6088221868120102431A601A6A3C
:100484003348024028201A625A6882435A60CC22B8
:100494009868120102439A601A682E4802401A6052
:1004A400A0221868D2010243C0201A605A6882430D
:1004B4005A60F0229868120202439A60264A106831
:1004C40080008008106080201468C00520431060FC
:1004D400224C506820405060C0209468000620439D
:1004E400906080200002906180209861403898617B
:1004F4000423886903438B61A023DB03936113689E
:10050400174803401360882314685B012343502475
:1005140013605368A3435360D3680340D3604968AE
:1005240080230A00DB011A40194200D01822D1238B
:100534009B0013430B4A13600023536010BDC04655
:1005440000100240000C0140FFFCFFFF3FF3FFFFDF
:10055400FF0F0FFFFF0FFFFF00080140FF7FFFFFAA
:10056400FFCCFFFF00200140F8B5070016000D0086
:100574001C002A20FFF74EFF380AFFF755FFF8B298
:10058400FFF752FF300AFFF74FFFF0B2FFF74CFFBF
:100594002B20FFF73FFF280AFFF746FFE8B2FFF7DB
:1005A40043FF200AFFF740FFE0B2FFF73DFF2C2096
:1005B400FFF730FFF8BD0000F0B5030A85B00093E3
:1005C400C3B201938023204E1B06B3611F4A204B04
:1005D400A0241A6040221F4B1F4F196891431960D1
:1005E40019680A4300211A601C4B1D4A08001A604E
:1005F4009F237F22FFF7B8FF80221A4B9A611A4B80
:100604001A4A1A6080251A4B3B600098013DFFF797
:10061400F5FEADB20198FFF7F1FE002DF5D1013CD6
:10062400A4B2002CEED196235B000393039B5A1EC5
:100634000392002BFAD10F4B0F4A1A6080231B023E
:10064400B36105B0F0BDC04600080140000011EEE2
:100654009000002000200140003000409400002061
:10066400000022EE000C014098000020000033EE50
:10067400AAAA00009C000020000044EE70B5FFF719
:10068400DDFE8023B64DB74CB74EDB03B361642067
:100694002560FFF7DFFD402325607820B3612560E6
:1006A400FFF7D8FD8023B14E1B0625601120B361EE
:1006B400FFF7B0FE25607820FFF7CCFD2560FF2012
:1006C400FFF7A8FEA520FFF7AFFE3E20FFF7A2FE2E
:1006D4000820FFF7A9FE3A20FFF79CFE6520FFF7EC
:1006E400A3FE8220FFF796FE0020FFF79DFE9820D0
:1006F400FFF790FE0020FFF797FE6320FFF78AFEC6
:100704000F20FFF791FE6420FFF784FE0F20FFF710
:100714008BFEB420FFF77EFE3420FFF785FEB52064
:10072400FFF778FE3020FFF77FFE8320FFF772FE8D
:100734001320FFF779FE8620FFF76CFE0420FFF7F5
:1007440073FE8720FFF766FE1920FFF76DFE8820F1
:10075400FFF760FE2F20FFF767FE8920FFF75AFEA0
:100764003620FFF761FE9320FFF754FE6320FFF766
:100774005BFE9620FFF74EFE8120FFF755FEC32057
:10078400FFF748FE1020FFF74FFEE620FFF742FE7A
:100794000020FFF749FE9920FFF73CFE0120FFF7F8
:1007A40043FE4420FFF736FE0020FFF73DFE702095
:1007B400FFF730FE0720FFF737FE7120FFF72AFE10
:1007C4001920FFF731FE7220FFF724FE1A20FFF7ED
:1007D4002BFE7320FFF71EFE1320FFF725FE742067
:1007E400FFF718FE1920FFF71FFE7520FFF712FE12
:1007F4001D20FFF719FE7620FFF70CFE4720FFF7B8
:1008040013FE7720FFF706FE0A20FFF70DFE78207F
:10081400FFF700FE0720FFF707FE7920FFF7FAFD38
:100824004720FFF701FE7A20FFF7F4FD0520FFF7CC
:10083400FBFD7B20FFF7EEFD0920FFF7F5FD7C2093
:10084400FFF7E8FD0D20FFF7EFFD7D20FFF7E2FD48
:100854000C20FFF7E9FD7E20FFF7DCFD0C20FFF7FD
:10086400E3FD7F20FFF7D6FD0820FFF7DDFDA02084
:10087400FFF7D0FD0B20FFF7D7FDA120FFF7CAFD3E
:100884003620FFF7D1FDA220FFF7C4FD0920FFF7B2
:10089400CBFDA320FFF7BEFD0D20FFF7C5FDA4206F
:1008A400FFF7B8FD0820FFF7BFFDA520FFF7B2FD55
:1008B4002320FFF7B9FDA620FFF7ACFD3B20FFF78F
:1008C400B3FDA720FFF7A6FD0420FFF7ADFDA82088
:1008D400FFF7A0FD0720FFF7A7FDA920FFF79AFD6A
:1008E4003820FFF7A1FDAA20FFF794FD0A20FFF7A7
:1008F4009BFDAB20FFF78EFD1220FFF795FDAC208A
:10090400FFF788FD0C20FFF78FFDAD20FFF782FD78
:100914000720FFF789FDAE20FFF77CFD2F20FFF7AE
:1009240083FDAF20FFF776FD0720FFF77DFDFF2055
:10093400FFF770FD0020FFF777FD3620FFF76AFD13
:100944009820FFF771FD2920FFF764FD0A20FFF7C7
:1009540081FC80231B02B3610020FFF72DFE70BDD4
:10096400AAAA000000300040000C01400008014029
:10097400F8B54027B84EFFF761FDB7610A20FFF7CD
:1009840069FC8023B54DB64CDB03B3610A202560B6
:10099400FFF760FCB7610A20FFF75CFC8023B14ECF
:1009A4001B06B3611120FFF735FD25607820FFF7A2
:1009B40051FC2560FF20FFF72DFDA520FFF734FD36
:1009C4003E20FFF727FD0820FFF72EFD3A20FFF712
:1009D40021FD6520FFF728FD8220FFF71BFD002085
:1009E400FFF722FD9820FFF715FD0020FFF71CFDFF
:1009F4006320FFF70FFD0F20FFF716FD6420FFF7BC
:100A040009FD0F20FFF710FDB420FFF703FD34208C
:100A1400FFF70AFDB520FFF7FDFC3020FFF704FDCA
:100A24008320FFF7F7FC1320FFF7FEFC8620FFF777
:100A3400F1FC0420FFF7F8FC8720FFF7EBFC1920FA
:100A4400FFF7F2FC8820FFF7E5FC2F20FFF7ECFC12
:100A54008920FFF7DFFC3620FFF7E6FC9320FFF741
:100A6400D9FC6320FFF7E0FC9620FFF7D3FC81203C
:100A7400FFF7DAFCC320FFF7CDFC1020FFF7D4FC0E
:100A8400E620FFF7C7FC0020FFF7CEFC9920FFF714
:100A9400C1FC0120FFF7C8FC4420FFF7BBFC002089
:100AA400FFF7C2FC7020FFF7B5FC0720FFF7BCFC82
:100AB4007120FFF7AFFC1920FFF7B6FC7220FFF797
:100AC400A9FC1A20FFF7B0FC7320FFF7A3FC132046
:100AD400FFF7AAFC7420FFF79DFC1920FFF7A4FC84
:100AE4007520FFF797FC1D20FFF79EFC7620FFF78B
:100AF40091FC4720FFF798FC7720FFF78BFC0A2036
:100B0400FFF792FC7820FFF785FC0720FFF78CFCA9
:100B14007920FFF77FFC4720FFF786FC7A20FFF758
:100B240079FC0520FFF780FC7B20FFF773FC09208C
:100B3400FFF77AFC7C20FFF76DFC0D20FFF774FCB7
:100B44007D20FFF767FC0C20FFF76EFC7E20FFF78B
:100B540061FC0C20FFF768FC7F20FFF75BFC08209A
:100B6400FFF762FCA020FFF755FC0B20FFF75CFCAD
:100B7400A120FFF74FFC3620FFF756FCA220FFF719
:100B840049FC0920FFF750FCA320FFF743FC0D208C
:100B9400FFF74AFCA420FFF73DFC0820FFF744FCC4
:100BA400A520FFF737FC2320FFF73EFCA620FFF724
:100BB40031FC3B20FFF738FCA720FFF72BFC042077
:100BC400FFF732FCA820FFF725FC0720FFF72CFCD9
:100BD400A920FFF71FFC3820FFF726FCAA20FFF707
:100BE40019FC0A20FFF720FCAB20FFF713FC1220AE
:100BF400FFF71AFCAC20FFF70DFC0C20FFF714FCE8
:100C0400AD20FFF707FC0720FFF70EFCAE20FFF72F
:100C140001FC2F20FFF708FCAF20FFF7FBFB0720A8
:100C2400FFF702FCFF20FFF7F5FB0020FFF7FCFBBA
:100C34003620FFF7EFFB9820FFF7F6FB2920FFF79C
:100C4400E9FB0A20FFF706FB80231B02B3610020A7
:100C5400FFF7B2FCF8BDC046000C0140AAAA000090
:100C64000030004000080140F0B587B001930CABA0
:100C74001B8816001A0ADBB20393802302924022D7
:100C84001C4F1B06BB611C4B1C6894431C601C68F6
:100C940022431A60019B721E013BCB1882189BB23F
:100CA40092B2FFF761FC80220024144B9A61019BED
:100CB4009C420CD196235B000593059B5A1E05921A
:100CC400002BFAD180231B02BB6107B0F0BD0025C5
:100CD4000B4B0C4A1A60B54202D10134A4B2E6E7C8
:100CE4000298FFF78BFB01350398FFF787FBADB242
:100CF400F1E7C0460008014000200140000C01401B
:100D040000300040AAAA0000F0B589B003930EABEE
:100D14001B880290049380230800110040220025C0
:100D2400224F1B06BB61224B2E001C6894431C609F
:100D34001C6822431A60049B039A013B013ACB18B6
:100D440082189BB292B2FFF70FFC8022194B9A6172
:100D5400049B9E420CD196235B000793079B5A1E6B
:100D64000792002BFAD180231B02BB6109B0F0BDAE
:100D7400114B124A6C001A60029B029AE418039BFE
:100D8400ED186B009B180593059B9C4202D101361C
:100D9400B6B2DDE723880234180A0193FFF72EFB6D
:100DA4006B461879FFF72AFBEEE7C04600080140BE
:100DB40000200140000C014000300040AAAA0000BD
:100DC400F0B515001F00060087B00CAB1B880DAAF8
:100DD40012885B1902929BB27A00059103920493E4
:100DE400049B9D4201D107B0F0BD00241D4B1E4A57
:100DF4001A60BC4231D262002300B21803E001330E
:100E04009BB29F4229D01000029C01880232A14269
:100E1400F5D05A00B21894461C00BC4212D3059A6D
:100E2400991889B27F29E4D8E31A9BB2CA18802A98
:100E340002D980235B1A9BB2012200922A00FFF799
:100E440063FFD6E7022294446246911E0988029AFF
:100E54009142E4D00134A4B2DFE7039B0135ADB283
:100E6400F618BDE700300040AAAA00001022034B88
:100E7400002801D0802252039A617047000C01407F
:100E8400042380200E4A10B5916980030B439361BB
:100E94000C4B0D4998611A680A401A6080221C683C
:100EA400D200224320241A605A68A2435A609A68E6
:100EB4000A409A60DA680A40DA60986110BDC04658
:100EC4000010024000080140FFF3FFFF8022024BA4
:100ED40092039A617047C046000801402022014BEA
:100EE4009A617047000801408022024B92039A6184
:100EF4007047C0460008014004230E4A91690B4321
:100F040093610D4B0D491A680A401A60DA680A4069
:100F1400DA608022D968D2010A43DA600023084AE1
:100F24001370084A1370084A1370084A1370084A69
:100F3400138070470010024000080140FF3FFFFF8C
:100F44001200002011000020100000200C000020DE
:100F54000E000020012030B504000F4A0F49126929
:100F64000B78D209944322000C709C4393435D1E7A
:100F7400AB410B490C700B490B70002C06D00A4B8B
:100F84005A6A0A4B1A800A4B187030BD002AFCD1E9
:100F9400074B1A70F9E7C046000801401200002010
:100FA4001100002010000020002C01400E00002041
:100FB4000C000020014B18787047C0461200002036
:100FC400054B1B78181E05D0044B586A044B1B882C
:100FD400C01A80B27047C0460C000020002C0140AB
:100FE4000E0000200120024B1B69DB099843704767
:100FF400000801408023124A5B0111680B4313600F
:10100400104B114A1A600423104A91690B4310498A
:1010140093610A680F4B1A40B0231B051343002247
:101024000B600D4B1A600D4B06321A600C4B053ADF
:101034001A60F022196852030A431A607047C046C6
:10104400141002402C10024004380000001002402A
:1010540014080240FFFFFFF0300802403808024045
:1010640008080240C022124B920119681868F0B5B2
:1010740002431A6000220F480F4C104D04602A608E
:1010840080220F4ED20337683A43326002260D4A5B
:101094002F68374202D1013A002AF9D10A4A046082
:1010A400106819600005000D312800D80748F0BD0C
:1010B4000008014000300040AAAA000000080240D5
:1010C40008080240204E0000500802407609000043
:1010D400012210B5054B0648064CD968114202D1CD
:1010E400DA68DA6010BD0460F7E7C0460020024009
:1010F40000300040AAAA000070B50225074C2369FD
:101104002B43236140236061226913432361FFF76A
:10111400DFFF2369AB43236170BDC046002002405A
:10112400044B1A69120603D5034A5A60034A5A60EB
:101134007047C0460020024023016745AB89EFCDCC
:10114400020070B50800072A0FD80A4B0A49550255
:101154000A4EEB186D1819685C680C0C2404B44230
:1011640004D1C9B2914201D1586870BD083BAB4269
:10117400F1D1FAE7F8F10008F8EF000800005AA5E9
:10118400F7B506000191072830D8194B0025C4187B
:101194006402FFF7C5FF230019685A680A40013248
:1011A40007D001350833402DF6D12000FFF7A4FF06
:1011B40000250127ED002D190E4C23693B432361C3
:1011C400019B6B60FFF784FF2369BB4323612269A2
:1011D400094B3A43334322612B60FFF779FF2369BC
:1011E400BB4323618023226913432361F7BDC046B7
:1011F400780004000020024000005AA5014B18802A
:101204007047C0461C000020024B1880024B196036
:101214007047C04618000020140000200423F0B5D5
:101224007F4E804DB26985B01343B3612A687E4B0B
:101234007E491A4088235B0113432B605023AB6122
:10124400736A7B4A7B4C13607B4A7C4F11605B065C
:1012540042D57B4B1A687B4B9A423DD17A4B7B4AF1
:1012640023607B4B2360062313607A4B7A4A1A600F
:1012740027602760FFF704FE2B6878490B402B603A
:101284008023EA68DB010A401343EB600223F2691E
:10129400002113430722F361714B19609A62714A6A
:1012A400DA6201225A6119611A602760FEF7F0FFC1
:1012B40032260120FEF7CEFF80222B691342F4D19F
:1012C400013EB6B2002EF4D113002A691A4200D1AD
:1012D4009DE000235A4A13605B4B5C4A23605C4BDD
:1012E4002360062313605B4B5B4A1A602760276008
:1012F400FFF7C6FDFEF78AFFC8202760FEF7AAFFA6
:101304002760FFF777FEFFF733FB0120FFF7AEFD01
:10131400FFF73EF8FFF7DAFDFFF7EEFD00F09AFC69
:10132400514A536A9BB20093536A504A1380002374
:1013340001920293009B4C4A2760526A92B2009237
:101344004B4A1188002937D0019A00981288821AD2
:1013540092B2914230D8FFF7C7FD4021454A14208C
:1013640013688B4313605023AB61FEF773FF354B57
:10137400334A13602760FEF78BFF32260120FEF705
:1013840069FF80222B691342F4D1013EB6B2002ECC
:10139400F4D12B4B1E6013002A6927601A42FBD03C
:1013A400FFF7E6FA0120FFF761FD00F0B1FE2E4BD6
:1013B400019A5B6A9BB21380009AD21A92B2202AD5
:1013C400B9D9FFF7C7FDFFF7F5FD002802D0019B4F
:1013D400009A1A80284E3388002B1AD0274B039387
:1013E4001B68002B15D0FFF7EBFD3388834210D820
:1013F400234E3378002B04D1039B1B6898470123A9
:101404003370029800F050FC029B013391E727608F
:101414005BE7FFF7CFFD0028F3D1194B1870F0E715
:101424000010024000080140FFCCFFFFEFBEADDE1C
:10143400F01F002000300040F41F0020AAAA000082
:10144400F81F0020003E55D0CCCC000004300040F2
:101454005555000008300040FF0F0000FF3FFFFF1C
:1014640000040040E7030000002C01401A000020A3
:101474001C0000200020014018000020140000205F
:101484001300002010B50A4A0A4C800021520A4B6E
:10149400116824184B4309495B181360180C3F2149
:1014A400FEF78CFE00231431A170E37010BDC0461A
:1014B400000000205C0100200D6619005FF36E3C03
:1014C40096210E22094B70B51B5C094CC91A0948B8
:1014D400CD0FD3178A426B41074E5B4223409B19C1
:1014E400013203800230962AF3D170BDF121000845
:1014F400BA73FFFF4C000020E9CD0000F7B50D00E2
:1015040096261E4B083D1B5CF61A0E2D00DA0E259E
:1015140014000834962C00DD96240E204B1E9C46A5
:10152400631E0093164FF30F0193814210DC824235
:1015340019DD019CC317B0426341124C5B42234046
:10154400114C1B1901303B8002379628EDD1F7BDB1
:10155400854210D084450ED0854201DA844508DCEA
:10156400FC23DB00EEE7824205D0009B834202D0DD
:10157400F6DD064BE6E7F0239B00E3E7F1210008E4
:101584004C000020BA73FFFFE9CD00008A57000029
:101594002C4BF7B51B882C4A93420AD82B4A93420A
:1015A4000BD82B4C2B4A25001F27934208D8270021
:1015B40006E0DC24E4002500F9E7274D244C2F0045
:1015C4000023264E0093112203216C200833FFF7D9
:1015D4004BFB00960123112203216C20FFF744FBEF
:1015E4000096012311220A216C20FFF73DFB00968F
:1015F4000823012203216C20FFF736FB0096082301
:10160400012203217C20FFF72FFB009604230222F2
:1016140005217D20FFF728FB0422009711000623F3
:101624006D20FFF721FB0422009511000623722090
:10163400FFF71AFB04220623110077200094FFF71A
:1016440013FBF7BD04000020FD0D0000590B000042
:101654000421000075090000FF060000FFFF0000E0
:1016640007B58A228A2802DCC243D21702400B0043
:101674000848083303DB08480C2900DD0748084BF9
:10168400162101930C2392B200930533FFF798FBC4
:1016940007BDC0460A240008A225000872220008DB
:1016A400E9CD0000882307B581B200930E220248D9
:1016B400873BFFF729FB07BD4C000020F0B5002451
:1016C40089B004900591069207930226049B069A1A
:1016D4001F5D6300D3189BB2059D03933B00012259
:1016E40033411340079A5B421340009302232800BE
:1016F4001A0003990235FFF7B7FAADB2013EEDD2F5
:101704000134052CE1D109B0F0BD00000023F0B58F
:1017140085B00392009305000A33162235200E008B
:10172400FFF7A2FA0623092D03D91033632D00D83D
:10173400083B8024E41A64101B4FA4B2632D22D901
:1017440064212800FEF7B4FC0A21FEF737FD0520CA
:10175400484332002100039B3818FFF7AFFF0834D9
:10176400A4B20A212800FEF7A3FC0A21FEF726FDF5
:101774000520484332002100039B38180834FFF742
:101784009DFFA4B201E0092DEBD828000A21FEF741
:1017940015FD05234B433200F8182100039BFFF786
:1017A4008DFF05B0F0BDC046BF2100080023F0B591
:1017B400614C89B0059006910E202A21079200936E
:1017C40064225A33FFF750FA012364222A210E209F
:1017D4000094FFF749FA0123642283210E20009428
:1017E400FFF742FA5A2301222A210E200094FFF720
:1017F4003BFA5A2301222A2171200094FFF734FA7C
:101804004E48230030222D210390FFF757FF4C4808
:101814002300302235210490FFF750FF494D230067
:1018240030223D212800FFF749FF474823000700E5
:1018340030224521FFF742FF444E230030224D2140
:101844003000FFF73BFF22003D210598FFF75EFFC4
:101854003F4B58224A21142000930123FFF704FA36
:101864003C4C4E221D2120003B4BFFF727FF4E220C
:1018740025213A48384BFFF721FF4E222D213848C5
:10188400354BFFF71BFF4E2235212000324BFFF76B
:1018940015FF4E223D21304B0398FFF70FFF4E22D8
:1018A40045212D4B0498FFF709FF4E224D212800B6
:1018B400294BFFF703FF4E2255213800264BFFF733
:1018C400FDFE254B4E225D213000FFF7F7FE5B2124
:1018D400214A0698FFF71AFF079B002B29D01F23E4
:1018E4006B2224211F48FFF7E9FE1F236B222C21C2
:1018F4001D48FFF7E3FE1F236B2234211B48FFF72B
:10190400DDFE1F236B223C213000FFF7D7FE1F238F
:101914006B2246211648FFF7D1FE1F236B224E216E
:101924002800FFF7CBFE1F236B2256211148FFF737
:10193400C5FE09B0F0BDC046FFFF0000B521000898
:10194400792100087E21000883210008B0210008C5
:1019540008420000A1210008FF070000A62100089A
:1019640074210008882100088D21000892210008B4
:10197400972100089C210008002337B578220093A2
:10198400682104202233FFF76FF96C2224212448B4
:10199400244BFFF793FE6C222C212348214BFFF7A5
:1019A4008DFE224D6C22280034211E4BFFF786FE4B
:1019B4006C223C211E481B4BFFF780FE1D4C6C2201
:1019C40020004421174BFFF779FE6C2252211A485C
:1019D400144BFFF773FE7A2228211848114BFFF7A6
:1019E4006DFE28007A2230210E4BFFF767FE7A2223
:1019F4003A2113480B4BFFF761FE7A22422111482A
:101A0400084BFFF75BFE7A224A210F48054BFFF78C
:101A140055FE7A2252212000024BFFF74FFE37BDBC
:101A2400B5210008FFFF0000792100087E2100088D
:101A340083210008B0210008CE210008BA21000843
:101A4400882100088D21000892210008F0B50025A6
:101A540087B00390049105922C003B4B5E5D1A5DA8
:101A6400B24202D10134802CF9D1ADB2671BBFB2AE
:101A7400002E53D1354B3A0000930E2188232800C1
:101A8400FFF7F2F8802C47D1002522002900280016
:101A94000E230095FFF7E8F8F0239B0022002800AE
:101AA400009396210A23FFF7DFF8294FBD7800231E
:101AB400FC5E2B0026003A33029316367F2C07D89F
:101AC40020002900029AFFF719FD2000FFF7EAFD24
:101AD4000134B442F2D10423FC5EBD7926002F0008
:101AE40016363A377F2C07D820003A002900FFF732
:101AF40005FD2000FFF7D6FD0134B442F2D104996C
:101B04000398FFF7ADFD0321124A0598FFF7FEFD88
:101B1400FFF73EFD07B0F0BD25009DE796239B1B14
:101B24009AB202920E2B09DD1300084A0E3B009272
:101B34000E213A0028009BB2FFF796F8064B3A00B4
:101B44000093029933009AE7F1210008E9CD0000DF
:101B54005C010020FFFF0000A341000070B50024D9
:101B6400FFF7C2F91E4B1F491C801F4B46261C70F1
:101B74001E4B1F4D1C701F4B20001A681E4B5343F5
:101B84000A6853401D4A53408C220B601C4B920040
:101B94001C701C4BB2211A601B4B1C601B4B1E603B
:101BA4001B4B1E601B4B1C6001235B422B601A4BBA
:101BB4001C601A4B1C70FFF765FC12210120FF31D9
:101BC400FFF760FC220030002100FFF73FFFFFF722
:101BD400D3FE134B2C605A6A124B1A8070BDC04658
:101BE400660100200000002065010020640100203F
:101BF4002C00002024000020B179379E3412DEC06E
:101C040044000020400000203C0000203800002058
:101C14003400002030000020280000202000002094
:101C2400002C01402200002010B5FFF75DF9074C9D
:101C34002378002B06D0064B02201968FFF7A0FA80
:101C440000232370FFF78AFF10BDC0462000002048
:101C54004800002010B5FFF747F9FEF70FFD0C48C8
:101C6400FFF7CCFA0B490C48FFF7CEFA002102200B
:101C7400FFF766FA094B1860FFF7F4F9084B188070
:101C84000020084B1860FEF797FCFFF767FF10BDB4
:101C9400307500002D1C00081027000048000020AB
:101CA4000400002024000020C34BF0B51A688BB058
:101CB40001321A60C14B53430122D341C04A9342BB
:101CC40005D8FFF7CFF9BF4B1880FFF761FCFFF78A
:101CD40089F9BD4A002805D01378002B02D10121CF
:101CE400BA4B1970042310700793B94BB94F5B6A50
:101CF4003A889B1A9BB2202B73D921323A80FFF782
:101D040071F9B14BB14C002804D01A78002A01D1E2
:101D140001322270B04D18702B782678002B1ED11A
:101D2400002E11D0012324212B70AC4B49421960A1
:101D3400AB4AAC4B12681868FFF788FEA44B5B6A89
:101D44003B800023237003E0FFF734F90028E9D136
:101D5400079B013BDBB20793002BC6D141E0022B6A
:101D640041D1FFF727F99E4B05001B68022B1FD9B1
:101D74009D4F3B78002B1BD19C4B00280FD0012694
:101D84009B4D1E702B882C2B05D8FFF7A7F82B88AA
:101D94009B192B80D5E7FFF7A7F83E70D1E71B7896
:101DA400002B05D0FFF7A0F8012325703B70CFE787
:101DB400904A1368013313600F2BC9D9002EC7D082
:101DC400FFF792F88C4D2B78002B06D08B4B02201A
:101DD4001968FFF7D5F900232B7000232370FFF750
:101DE400BDFE0BB0F0BD7D4B0493002E05D0242323
:101DF400049A5B42136000232370049B1B68033323
:101E04001A00282B01DD2822130004990A607C4A59
:101E140011685B186F2B00DC00E11360DB10039387
:101E2400892B00DD02E10023764D05930023EC5E4F
:101E3400A61E3300153300DA13E12700AB781437FC
:101E440006937F2F0EDC3800FFF73AFB3800FFF7CC
:101E540029FC01376B2C05D03800FFF731FB380023
:101E6400FFF720FC069F2E803A377F2E07D83000DC
:101E74003A000699FFF742FB3000FFF713FC013CE0
:101E84007F2C07D820003A000699FFF737FB200083
:101E9400FFF708FCEB78002B09D10022AB5E002B86
:101EA40005DA01234E4AEB701368013313600122F3
:101EB400059B043501330592022BB7D146490B78B3
:101EC40093421ED14F4B1A88023A232A09D8039809
:101ED4009A780130904212DB039839320A309042EA
:101EE4000DDC9A88023A232A0BD8039A9B79013293
:101EF4009A4204DB039A39330A329A4201DD0223FF
:101F04000B70414B039A1B68934200D0ABE0334BF8
:101F140003981968FFF7A4FB039A3B4B314E1A60F0
:101F24002F4C374B394D3260D2001A6020682B6831
:101F3400984207D00321364AFFF7E8FBFFF728FB56
:101F440023682B60244B1B78022B00D000E7FEF79C
:101F5400CBFF0023264A1380244A1370224A1370AD
:101F6400264B226819688A4203D91A600122224B3F
:101F74001A70284D284F1F202F60FEF71DFB1E20CE
:101F8400FEF768F9049B2F60196822683068FFF730
:101F94005DFD02222F602068184B8242924119682D
:101FA4005242FFF703FC194B22681A60084B5A6A25
:101FB400084B1A8015E7C0462400002063C92F96F9
:101FC4001BE8B401040000201F0000201E000020B4
:101FD400002C014022000020440000203C0000208E
:101FE400300000203800002064010020650100203A
:101FF4006601002028000020200000204800002066
:10200400400000205C010020340000202C0000204F
:10201400FFFF000000300040AAAA000070231360F4
:102024000023049A13600E330393FCE602232B70FF
:102034008833F9E73000FFF743FA3000FFF732FB4B
:102044000136230015339E42F4DD012305992C4A01
:102054004B409B00995A05985F3109B2FFF712FA79
:1020640018E70026EDE78A248A2B02DCDC43E41718
:102074001C400D2B40DCA31E05930E24002B00DC1A
:1020840045E716231F001F4AD15C0691D15D0698CF
:10209400814202D10137272FF8D19BB20893FB1A52
:1020A4009BB209939623069A9D1A059B1E192B0031
:1020B400B54200DD3300A34208DD134AA1B25B1A26
:1020C40000920898099A9BB2FEF7CEFD069B002B5E
:1020D4000DD0A54200DA2500AE4208DD0B4AA9B2B4
:1020E400731A00920898099A9BB2FEF7BDFD272F38
:1020F40000D10CE73B00C5E70C230593C1E7C046BC
:102104005C010020F1210008E9CD0000A34100009A
:1021140010B5FEF7E9FE0F4B0F4C10492268186802
:102124000968FFF793FC0E4B1A78022A0CD1206839
:102134000C4B8242924119685242FFF737FB0A4B1B
:102144005A6A0A4B1A8010BD002AF8D1FFF714FC12
:10215400F5E7C04638000020300000203C00002095
:102164004400002048000020002C014022000020F0
:102174000704050507070404040707050505070701
:1021840005070605050505020202050705050705FD
:1021940006040405070505050505050705050507E6
:1021A40005050702020207060506050607040604DC
:1021B40007070407010707020202020705050507CE
:1021C40002060202070701070407070107010705C2
:1021D40005070101070407010707040705070701AD
:1021E40001010107050705070705070107000000AE
:1021F40000001C1C1C1C1C1C1C1C1C1C1C1C1C1C53
:102204001C00000000000021212121212121212185
:10221400212121212121212100000000001818186A
:102224001818181818181818181818181818180042
:102234000000000000232323232323232323232319
:102244002323232300000000001B1B1B1B1B1B1B41
:102254001B1B1B1B1B1B1B1B1B1B00000000001E4E
:102264001E1E1E1E1E1E1E1E1E1E1E1E1E00E9CD2E
:10227400E9CDE9CD00000000000000000000E9CD38
:10228400E9CDE9CDE9CDE9CDE9CDE9CDE9CDE9CD9A
:10229400E9CDE9CD0000FF07FF07FF07FF07FF07B0
:1022A40000000000E9CDE9CDE9CDE9CDE9CDE9CDE6
:1022B400E9CDE9CD0000FF07FF07FF07FF07FF0790
:1022C400FF07FF07FF0700000000E9CDE9CDE9CDD6
:1022D400E9CDE9CD0000FF07FF07FF07FF07FF0770
:1022E400FFFFFFFFFF07FF07FF0700001F041F0496
:1022F4001F040000E9CD0000FF07FF07FF07FF07E9
:10230400FF07FFFF0000FFFFFF0700001F041F047B
:102314001F041F040000E9CD0000FF07FF07FF07AB
:10232400FF07FF07FFFFFFFFFF07FF0700001F0472
:102334001F041F040000E9CDE9CD0000FF07FF07DB
:10234400FF07FF07FF07FF07FF07FF070000E9CDAF
:10235400E9CDE9CDE9CDE9CDE9CDE9CD0000FF072F
:10236400FF07FF07FF07FF07FF07FF070000E9CD8F
:10237400E9CDE9CDE9CDE9CDE9CDE9CDE9CDE9CDA9
:1023840000003F033F03FF07FF070000E9CDE9CD4D
:10239400E9CDE9CDE9CDE9CDE9CDE9CDE9CDE9CD89
:1023A400E9CDE9CD00003F033F030000E9CDE9CDCD
:1023B400E9CDE9CDE9CDE9CDE9CDE9CDE9CDE9CD69
:1023C400E9CDE9CDE9CDE9CD00001F04E9CD000058
:1023D4001F04E9CDE9CDE9CDE9CDE9CDE9CDE9CDDC
:1023E400E9CDE9CDE9CDE9CDE9CD0000E9CDE9CDEF
:1023F4000000E9CDE9CDE9CDE9CDE9CDE9CDE9CDDF
:10240400E9CDE9CDE9CDE9CDE9CDE9CD0000000084
:10241400000000000000E9CDE9CDE9CDE9CDE9CD2A
:10242400E9CDE9CDE9CDE9CDE9CDE9CD0000FF075E
:10243400FF07FF07FF07FF0700000000E9CDE9CD14
:10244400E9CDE9CDE9CDE9CDE9CDE9CD00003F0302
:102454003F03FF07FF07FF07FF07FF07FF07000012
:102464000000E9CDE9CDE9CDE9CDE9CD00003F0398
:102474003F03FF07FF07FF07FFFFFFFFFF07FF07FC
:10248400FF0700001F041F041F040000E9CD000023
:102494003F033F03FF07FF07FF07FFFF0000FFFFA6
:1024A400FF0700001F041F041F041F040000E9CDE0
:1024B4000000FF07FF07FF07FF07FF07FFFFFFFFFE
:1024C400FF07FF0700001F041F041F040000E9CDDD
:1024D400E9CD0000FF07FF07FF07FF07FF07FF071E
:1024E400FF07FF070000E9CDE9CDE9CDE9CDE9CD4E
:1024F400E9CDE9CD0000FF07FF07FF07FF07FF074E
:10250400FF07FF070000E9CDE9CDE9CDE9CDE9CD2D
:10251400E9CDE9CDE9CDE9CD0000FF07FF07FF07CD
:10252400FF070000E9CDE9CDE9CDE9CDE9CDE9CD5D
:10253400E9CDE9CDE9CDE9CDE9CDE9CD0000FF074D
:10254400FF070000E9CDE9CDE9CDE9CDE9CDE9CD3D
:10255400E9CDE9CDE9CDE9CDE9CDE9CDE9CDE9CDC7
:1025640000001F04E9CD00001F04E9CDE9CDE9CD49
:10257400E9CDE9CDE9CDE9CDE9CDE9CDE9CDE9CDA7
:10258400E9CD0000E9CDE9CD0000E9CDE9CDE9CD03
:10259400E9CDE9CDE9CDE9CDE9CDE9CDE9CDE9CD87
:1025A400E9CDE9CD00000000000000000000E9CD05
:1025B400E9CDE9CDE9CDE9CDE9CDE9CDE9CDE9CD67
:1025C400E9CDE9CD0000FF07FF07FF07FF07FF077D
:1025D40000000000E9CDE9CDE9CDE9CDE9CDE9CDB3
:1025E400E9CDE9CD0000FF07FF07FF07FF07FF075D
:1025F400FF07FF07FF0700000000E9CDE9CDE9CDA3
:10260400E9CDE9CD0000FF07FF07FF07FF07FF073C
:10261400FFFFFFFFFF07FF07FF0700001F041F0462
:102624001F040000E9CD0000FF07FF07FF07FF07B5
:10263400FF07FFFF0000FFFFFF0700001F041F0448
:102644001F041F040000E9CD00003F033F03FF0700
:10265400FF07FF07FFFFFFFFFF07FF0700001F043F
:102664001F041F040000E9CDE9CD00003F033F0330
:102674003F03FF07FF07FF07FF07FF070000E9CD40
:10268400E9CDE9CDE9CDE9CDE9CDE9CD00003F03C0
:102694003F03FF07FF07FF07FF07FF070000E9CD20
:1026A400E9CDE9CDE9CDE9CDE9CDE9CDE9CDE9CD76
:1026B4000000FF07FF07FF07FF070000E9CDE9CD92
:1026C400E9CDE9CDE9CDE9CDE9CDE9CDE9CDE9CD56
:1026D400E9CDE9CD0000FF07FF070000E9CDE9CD12
:1026E400E9CDE9CDE9CDE9CDE9CDE9CDE9CDE9CD36
:1026F400E9CDE9CDE9CDE9CD00001F04E9CD000025
:102704001F04E9CDE9CDE9CDE9CDE9CDE9CDE9CDA8
:10271400E9CDE9CDE9CDE9CDE9CD0000E9CDE9CDBB
:102724000000E9CDE9CDE9CDE9CDE9CDE9CDE9CDAB
:08273400E9CDE9CDE9CD00007B
:08273C001E5AADDEFE0D000087
:04000005080001CD21
:00000001FF
