:020000040800F2
:10000000C00F0020A1030008E1030008E10300087D
:1000100000000000000000000000000000000000E0
:10002000000000000000000000000000E1030008E4
:100030000000000000000000E1030008E3030008E6
:10004000E1030008E1030008E1030008E103000800
:10005000E1030008E1030008E1030008E1030008F0
:10006000E1030008E1030008E1030008E1030008E0
:10007000E1030008E1030008E1030008E1030008D0
:10008000E1030008E1030008E1030008E1030008C0
:10009000E1030008E1030008E1030008E1030008B0
:1000A000E1030008E1030008E1030008E1030008A0
:0400B000E103000860
:1000B400002243088B4274D303098B425FD3030AA3
:1000C4008B4244D3030B8B4228D3030C8B420DD3B6
:1000D400FF22090212BA030C8B4202D31212090244
:1000E40065D0030B8B4219D300E0090AC30B8B4282
:1000F40001D3CB03C01A5241830B8B4201D38B0330
:10010400C01A5241430B8B4201D34B03C01A5241D4
:10011400030B8B4201D30B03C01A5241C30A8B4217
:1001240001D3CB02C01A5241830A8B4201D38B0202
:10013400C01A5241430A8B4201D34B02C01A5241A6
:10014400030A8B4201D30B02C01A5241CDD2C30918
:100154008B4201D3CB01C01A524183098B4201D394
:100164008B01C01A524143098B4201D34B01C01A7F
:10017400524103098B4201D30B01C01A5241C308F7
:100184008B4201D3CB00C01A524183088B4201D366
:100194008B00C01A524143088B4201D34B00C01A52
:1001A4005241411A00D20146524110467047FFE7BE
:1001B40001B5002000F0F0F802BDC0460029F7D0D8
:1001C40076E7704703460B437FD4002243088B42F3
:1001D40074D303098B425FD3030A8B4244D3030BCA
:1001E4008B4228D3030C8B420DD3FF22090212BA8F
:1001F400030C8B4202D31212090265D0030B8B420B
:1002040019D300E0090AC30B8B4201D3CB03C01AF4
:100214005241830B8B4201D38B03C01A5241430BCF
:100224008B4201D34B03C01A5241030B8B4201D3BF
:100234000B03C01A5241C30A8B4201D3CB02C01A2A
:100244005241830A8B4201D38B02C01A5241430AA2
:100254008B4201D34B02C01A5241030A8B4201D391
:100264000B02C01A5241CDD2C3098B4201D3CB0138
:10027400C01A524183098B4201D38B01C01A5241E7
:1002840043098B4201D34B01C01A524103098B42EB
:1002940001D30B01C01A5241C3088B4201D3CB00D6
:1002A400C01A524183088B4201D38B00C01A5241B9
:1002B40043088B4201D34B00C01A5241411A00D269
:1002C40001465241104670475DE0CA0F00D04942D2
:1002D400031000D34042534000229C4603098B4242
:1002E4002DD3030A8B4212D3FC22890112BA030ACA
:1002F4008B420CD3890192118B4208D3890192114C
:100304008B4204D389013AD0921100E08909C309D0
:100314008B4201D3CB01C01A524183098B4201D3D2
:100324008B01C01A524143098B4201D34B01C01ABD
:10033400524103098B4201D30B01C01A5241C30835
:100344008B4201D3CB00C01A524183088B4201D3A4
:100354008B00C01A5241D9D243088B4201D34B00BF
:10036400C01A5241411A00D20146634652415B1001
:10037400104601D34042002B00D5494270476346E2
:100384005B1000D3404201B5002000F005F802BD27
:100394000029F8D016E770477047C0460A480B4951
:1003A4000B4A002302E0D458C4500433C4188C42CE
:1003B400F9D308480849002201E002600430884269
:1003C400FBD300F04FFEFEE70000002000000020F9
:1003D400A027000800000020BC070020FEE77047AB
:1003E40001220D4B19680A431A600222196811424E
:1003F400FCD0102009490860D9690A43DA61002158
:100404000722074B19609A62064ADA6201225A618E
:1004140019611A607047C046001002400020024073
:1004240000040040E70300000023F0B501251E008E
:100434000849094C834200D1F0BD0A692A42FCD024
:100444000E612268054F01322260054A01331760AC
:10045400F0E7C0460004004000000020AAAA000003
:100464000030004012232D4AF0B52D4913602D4B66
:10047400802619602C4B2D4958682D4C08402D4975
:100484002D4D014359602D482D49F6010860802106
:10049400186849040143802019602A4980042560B2
:1004A4001F68074202D05F68374202D10139002930
:1004B400F5D11C68244904420CD124480860102159
:1004C40011605A680D398A435A601A6820490A40F3
:1004D4001A60F0BD1F4808601F492048086058682A
:1004E4001F490860D86A1F490860186B1E490860D4
:1004F40018681E4908605968490406D403205968DD
:100504008143596010211160DFE700212F22184B2D
:1005140019609A622E3A5A611961D9E700200240A3
:10052400111100AA4000002000100240FCFFC2FF8D
:100534000030004002001000AAAA0000222200BBE2
:1005440044000020400D030048000020555500EEF3
:10055400FFFFFFFE333300CC4C000020444400DD99
:100564005000002054000020580000205C000020AF
:100574000004004001212F4BF0B59A692E4C0A4328
:100584009A618022D869520502432C48DA610268D4
:100594000327224002608022294C2A4D20682A4EDB
:1005A40090432060294C2A60206890432060284CA6
:1005B400206810432060274C22603068B843084309
:1005C400306025487F1806683E43066040BF20BF60
:1005D400226020BF0668BE430660286890432860F6
:1005E40022601A681143196002211C4A18680842E3
:1005F40002D1013A002AF9D10222D96900200A4322
:100604000721DA61164A106091621649D16201210C
:1006140051611061116080229C69520122439A61E8
:10062400114B124A18609A62114ADA6259611861D0
:100634001960F0BD00100240FF0FFFFF0C000140E5
:10064400000401400404014000700040080401401B
:100654000C0401401404014010ED00E0400D0300BF
:1006640000040040E7030000002C01403F1F00008D
:10067400FFFF000080220D4B5201996980200A433C
:1006840000219A610A4AC00111605B680340584224
:10069400434108485B42034007481B189362074BD9
:1006A400D36201235361116113607047001002404B
:1006B400002C0140C063FFFF7FBB0000FFFF000070
:1006C4000222054B99681142FCD0044A1070802222
:1006D40099681142FCD17047002001400C20014070
:1006E400022303498A681A42FCD0024B18707047EF
:1006F400002001400C200140802210B5024B12045E
:100704009A61FFF7DDFF10BD000C0140802210B597
:10071400024B9A61FFF7D4FF10BDC046000C0140A4
:10072400832340499B008A6910B513438B613E4B78
:100734003E481A6802401A60802218685200024338
:1007440010201A605A6882435A60802252039A61C8
:100754001A68374802401A60882218681201024356
:100764001A601A6A3348024028201A625A6882437F
:100774005A60CC229868120102439A601A682E4883
:1007840002401A60A0221868D2010243C0201A60F5
:100794005A6882435A60F0229868120202439A60AF
:1007A400264A106880008008106080201468C00504
:1007B40020431060224C506820405060C020946850
:1007C40000062043906080200002906180209861A0
:1007D400403898610423886903438B61A023DB03B9
:1007E40093611368174803401360882314685B01FE
:1007F4002343502413605368A3435360D3680340D6
:10080400D360496880230A00DB011A40194200D0F2
:100814001822D1239B0013430B4A13600023536017
:1008240010BDC04600100240000C0140FFFCFFFF59
:100834003FF3FFFFFF0F0FFFFF0FFFFF0008014013
:10084400FF7FFFFFFFCCFFFF00200140F8B507004A
:1008540016000D001C002A20FFF74EFF380AFFF790
:1008640055FFF8B2FFF752FF300AFFF74FFFF0B21F
:10087400FFF74CFF2B20FFF73FFF280AFFF746FF47
:10088400E8B2FFF743FF200AFFF740FFE0B2FFF7AB
:100894003DFF2C20FFF730FFF8BD0000F0B5030A40
:1008A40085B00093C3B201938023204E1B06B3612D
:1008B4001F4A204BA0241A6040221F4B1F4F196867
:1008C4009143196019680A4300211A601C4B1D4AA0
:1008D40008001A609F237F22FFF7B8FF80221A4B7B
:1008E4009A611A4B1A4A1A6080251A4B3B60009889
:1008F400013DFFF7F5FEADB20198FFF7F1FE002DC3
:10090400F5D1013CA4B2002CEED196235B000393F5
:10091400039B5A1E0392002BFAD10F4B0F4A1A6005
:1009240080231B02B36105B0F0BDC046000801403E
:10093400000011EE90000020002001400030004033
:1009440094000020000022EE000C014098000020DA
:10095400000033EEAAAA00009C000020000044EE30
:10096400F8B54027B84EFFF7DBFEB7610A20FFF762
:100974005BFD8023B54DB64CDB03B3610A202560D3
:10098400FFF752FDB7610A20FFF74EFD8023B14EF9
:100994001B06B3611120FFF7AFFE25607820FFF737
:1009A40043FD2560FF20FFF7A7FEA520FFF7AEFE5D
:1009B4003E20FFF7A1FE0820FFF7A8FE3A20FFF72C
:1009C4009BFE6520FFF7A2FE8220FFF795FE002024
:1009D400FFF79CFE9820FFF78FFE0020FFF796FE9E
:1009E4006320FFF789FE0F20FFF790FE6420FFF7D6
:1009F40083FE0F20FFF78AFEB420FFF77DFE34202C
:100A0400FFF784FEB520FFF777FE3020FFF77EFE68
:100A14008320FFF771FE1320FFF778FE8620FFF78F
:100A24006BFE0420FFF772FE8720FFF765FE192096
:100A3400FFF76CFE8820FFF75FFE2F20FFF766FEAE
:100A44008920FFF759FE3620FFF760FE9320FFF759
:100A540053FE6320FFF75AFE9620FFF74DFE8120D8
:100A6400FFF754FEC320FFF747FE1020FFF74EFEAA
:100A7400E620FFF741FE0020FFF748FE9920FFF72C
:100A84003BFE0120FFF742FE4420FFF735FE002025
:100A9400FFF73CFE7020FFF72FFE0720FFF736FE1E
:100AA4007120FFF729FE1920FFF730FE7220FFF7AF
:100AB40023FE1A20FFF72AFE7320FFF71DFE1320E2
:100AC400FFF724FE7420FFF717FE1920FFF71EFE20
:100AD4007520FFF711FE1D20FFF718FE7620FFF7A3
:100AE4000BFE4720FFF712FE7720FFF705FE0A20D2
:100AF400FFF70CFE7820FFF7FFFD0720FFF706FE47
:100B04007920FFF7F9FD4720FFF700FE7A20FFF771
:100B1400F3FD0520FFF7FAFD7B20FFF7EDFD09202B
:100B2400FFF7F4FD7C20FFF7E7FD0D20FFF7EEFD56
:100B34007D20FFF7E1FD0C20FFF7E8FD7E20FFF7A5
:100B4400DBFD0C20FFF7E2FD7F20FFF7D5FD082039
:100B5400FFF7DCFDA020FFF7CFFD0B20FFF7D6FD4C
:100B6400A120FFF7C9FD3620FFF7D0FDA220FFF733
:100B7400C3FD0920FFF7CAFDA320FFF7BDFD0D202B
:100B8400FFF7C4FDA420FFF7B7FD0820FFF7BEFD63
:100B9400A520FFF7B1FD2320FFF7B8FDA620FFF73E
:100BA400ABFD3B20FFF7B2FDA720FFF7A5FD042016
:100BB400FFF7ACFDA820FFF79FFD0720FFF7A6FD78
:100BC400A920FFF799FD3820FFF7A0FDAA20FFF721
:100BD40093FD0A20FFF79AFDAB20FFF78DFD12204D
:100BE400FFF794FDAC20FFF787FD0C20FFF78EFD87
:100BF400AD20FFF781FD0720FFF788FDAE20FFF74A
:100C04007BFD2F20FFF782FDAF20FFF775FD072046
:100C1400FFF77CFDFF20FFF76FFD0020FFF776FD57
:100C24003620FFF769FD9820FFF770FD2920FFF7B4
:100C340063FD0A20FFF7F8FB80231B02B361002049
:100C4400FFF72CFEF8BDC046000C0140AAAA000024
:100C54000030004000080140F0B587B001930CABB0
:100C64001B8816001A0ADBB20393802302924022E7
:100C74001C4F1B06BB611C4B1C6894431C601C6806
:100C840022431A60019B721E013BCB1882189BB24F
:100C940092B2FFF7DBFD80220024144B9A61019B82
:100CA4009C420CD196235B000593059B5A1E05922A
:100CB400002BFAD180231B02BB6107B0F0BD0025D5
:100CC4000B4B0C4A1A60B54202D10134A4B2E6E7D8
:100CD4000298FFF705FD01350398FFF701FDADB25A
:100CE400F1E7C0460008014000200140000C01402B
:100CF40000300040AAAA0000F0B589B003930EABFF
:100D04001B880290049380230800110040220025D0
:100D1400224F1B06BB61224B2E001C6894431C60AF
:100D24001C6822431A60049B039A013B013ACB18C6
:100D340082189BB292B2FFF789FD8022194B9A6107
:100D4400049B9E420CD196235B000793079B5A1E7B
:100D54000792002BFAD180231B02BB6109B0F0BDBE
:100D6400114B124A6C001A60029B029AE418039B0E
:100D7400ED186B009B180593059B9C4202D101362C
:100D8400B6B2DDE723880234180A0193FFF7A8FC02
:100D94006B461879FFF7A4FCEEE7C0460008014053
:100DA40000200140000C014000300040AAAA0000CD
:100DB4001022034B002801D0802252039A6170470D
:100DC400000C0140402270B5802680250D4B0E4C4E
:100DD400196836069143196019682D020A431A608E
:100DE4002820A661FFF788FCA5610A20FFF71CFBF9
:100DF400A6611020FFF780FCA5610520FFF714FB16
:100E040070BDC04600200140000801404022F8B5F2
:100E14008025134B134C19682D06914319601968EA
:100E240011200A431A60A561FFF766FC80230E4E69
:100E34000E4F1B02A36178203760FFF7F5FA376085
:100E44002920A561FFF758FC80231B02A3610A2017
:100E5400FFF7EAFA8022064B52039A61F8BDC046B6
:100E6400002001400008014000300040AAAA000010
:100E7400000C0140042380200E4A10B591698003C0
:100E84000B4393610C4B0D4998611A680A401A6030
:100E940080221C68D200224320241A605A68A2438C
:100EA4005A609A680A409A60DA680A40DA6098617F
:100EB40010BDC0460010024000080140FFF3FFFFD0
:100EC4008022024B92039A617047C0460008014099
:100ED4002022014B9A617047000801408022024B96
:100EE40092039A617047C0460008014004230E4AE9
:100EF40091690B4393610D4B0D491A680A401A60BE
:100F0400DA680A40DA608022D968D2010A43DA60DA
:100F14000023084A1370084A1370084A1370084AD9
:100F24001370084A13807047001002400008014003
:100F3400FF3FFFFF0A0000200900002008000020F6
:100F44000400002006000020012030B504000F4AF0
:100F54000F4912690B78D209944322000C709C4308
:100F640093435D1EAB410B490C700B490B70002C75
:100F740006D00A4B5A6A0A4B1A800A4B187030BDC5
:100F8400002AFCD1074B1A70F9E7C046000801405B
:100F94000A0000200900002008000020002C014065
:100FA4000600002004000020014B18787047C0465A
:100FB4000A000020014B18787047C0460900002041
:100FC400014B18787047C04608000020054B1B7879
:100FD400181E05D0044B586A044B1B88C01A80B2F3
:100FE4007047C04604000020002C01400600002089
:100FF4008023114A5B0111680B4313600F4B104AA5
:101004001A6004230F4A91690B439361E0230E4A4B
:101014005B0311680B43136000220C4B1A600C4BEA
:1010240006321A600B4B053A1A60F0221968520313
:101034000A431A607047C046141002402C10024044
:10104400043800000010024010080240300802403A
:101054003808024008080240014B18807047C04617
:10106400140000200423F0B57E4E7F4DB26985B094
:101074001343B3612A687D4B7D491A4088235B0181
:1010840013432B605023AB61736A7A4A7A4C136022
:101094007A4A7B4F11605B0642D57A4B1A687A4BC9
:1010A4009A423DD1794B7A4A23607A4B23600623D6
:1010B4001360794B794A1A6027602760FFF7DAFEDC
:1010C4002B6877490B402B608023EA68DB010A40D8
:1010D4001343EB600223F269002113430722F361F7
:1010E400704B19609A62704ADA6201225A6119617E
:1010F4001A602760FFF73EFA32260120FFF794F9C1
:1011040080222B691342F4D1013EB6B2002EF4D1F1
:1011140013002A691A4200D19BE00023594A136044
:101124005A4B5B4A23605B4B2360062313605A4B84
:101134005A4A1A6027602760FFF79CFEFFF750F9B0
:10114400C8202760FFF770F92760FFF751FFFFF70A
:1011540007FC0120FFF72CFEFFF78CFAFFF7B0FE27
:10116400FFF7C4FE00F0C4FE504A536A9BB20093DA
:10117400536A4F4A1380002301920293009B4B4A07
:101184002760526A92B200924A4A1188002935D0E7
:10119400019A00981288821A92B291422ED8402164
:1011A400454A142013688B4313605023AB61FFF747
:1011B4003BF9354B334A13602760FFF7DBF93226DE
:1011C4000120FFF731F980222B691342F4D1013E4B
:1011D400B6B2002EF4D12B4B1E6013002A6927608F
:1011E4001A42FBD0FFF7BCFB0120FFF7E1FD01F041
:1011F400A5F92E4B019A5B6A9BB21380009AD21A0E
:1012040092B2202ABBD9FFF79FFEFFF7CDFE00283C
:1012140002D0019B009A1A80284E3388002B1AD0E2
:10122400274B03931B68002B15D0FFF7CFFE3388A1
:10123400834210D8234E3378002B04D1039B1B68C0
:10124400984701233370029800F08AFE029B013311
:1012540093E727605DE7FFF7A7FE0028F3D1194B5A
:101264001870F0E70010024000080140FFCCFFFFB7
:10127400EFBEADDEF01F002000300040F41F002060
:10128400AAAA0000F81F0020003E55D0CCCC0000D4
:10129400043000405555000008300040FF0F0000A6
:1012A400FF3FFFFF00040040E7030000002C014063
:1012B4001200002014000020002001401000002033
:1012C4000C0000200B0000203F22830910400C4A30
:1012D400002B02D14000105E7047012B04D13F3334
:1012E4001B1A5B00D05EF7E7022B04D14000105AB2
:1012F400404200B2F0E740231B1A5B00D05AF7E7E4
:101304001C2700080300020B5B05C006D202000F75
:10131400DB0E10435B011843704700000213531E99
:101324000020072B0AD809134B1E072B06D80A30B6
:101334004143034B5B18985C43425841C0B2704729
:10134400B82600080423094A91690B43C02193611C
:10135400074B1A688A431A60DA688A43DA60002203
:10136400044B1A70044B1A707047C04600100240B8
:10137400000801401700002016000020F0B507A95E
:101384000E88D143059CC91714191140602C00DD47
:1013940060248C421EDD0200984200DA1A00069D89
:1013A4005B19050008359D4200DD1D00AA4211DAD3
:1013B4006023101A434308485B185B001B181F0086
:1013C400080001303E8002378442FAD10132C03332
:1013D4009542F4D1F0BDC04644000020F0B5214A46
:1013E4002149002834D0C024204B64011C60204BC8
:1013F40064251C6000231F4C23701F4C257032246D
:1014040014701E4A137001220A701D4A13701D4A7B
:101414001370002101241C4B1C4D1D4F8A00AE5833
:10142400BA581E605A600222904203D98C429241FB
:101434005242023201311A725C720C330429EDD12A
:101444000022144B1A80144B1C70144B1C70F0BDFA
:10145400087813780130C0B208704F2BD9D81233F2
:10146400D6E7C046390000203700002040000020A5
:101474003C0000203B0000203A00002038000020FF
:10148400360000202C0000208C070020A82600082D
:10149400982600081C000020350000202E000020A3
:1014A40010B5FFF71BFD0022014B1A7010BDC0469A
:1014B4001900002037B50020FFF7F0F964230E214E
:1014C4000C4D1A0008000095FFF7C6FB00246023AA
:1014D40010211A0008000094FFF7BEFB00950223B8
:1014E400802274212000FFF7B7FB0122024B1A70FF
:1014F40037BDC0465211000035000020F0B587B05A
:101504001E000CAB1B880C0005931300413BD9B2A1
:10151400049019291CD81A00052300275343204A94
:101524009B1803930020039BDB5D02930223029A22
:101534001B1ADA4001210A4218D14018C0B203280C
:10154400F4D134190137A4B2052FEBD107B0F0BDA3
:101554001300303B092B01D8163ADDE73A2A03D0B1
:101564002D2AF3D1083AD7E72422D5E70500029AB9
:101574000121DA400A4204D00135EDB2013B032DCA
:10158400F5D12A1A7043049B72431818059B80B244
:1015940000932100330092B2FFF75EFB2800CEE7F0
:1015A400D7250008F0B51E000400150085B00AAB6D
:1015B4001F88B300039102932A78002A01D105B051
:1015C400F0BD202A05D03300200003990097FFF7CF
:1015D40095FF029B01351C19A4B2EDE7002313B556
:1015E4001F24009368222D210C203033FFF734FB95
:1015F400022368222D210C200094FFF72DFB0223E7
:1016040035212620064A0094FFF7CCFF054B4A21DA
:10161400009320000123044AFFF7C4FF13BDC04612
:10162400A0250008FFFF0000A9250008F0B585B03B
:10163400060014001D00284F0391632A2FD964214A
:101644001000FEF735FD3030C2B22B003000039994
:101654000097FFF753FFAB0020006421F618FEF754
:10166400ADFDCCB220000A21FEF722FDB6B2303027
:10167400C2B22B00300003990097FFF73FFF0A2105
:101684002000FEF79BFDAB003031CAB298192B0045
:10169400039980B20097FFF731FF05B0F0BD092A26
:1016A40014D90A211000FEF703FD3030C2B22B001A
:1016B400300003990097FFF721FF0A212000FEF76D
:1016C4007DFDA8003031CAB23018E0E73034039908
:1016D400E2B20097DFE7C046FFFF000037B5802283
:1016E400264B1100009300202023FFF7B5FA802237
:1016F40000241F25224B1100009300200223FFF732
:10170400ABFA10232C2283212A200094FFF7A4FA99
:1017140000950123832103201A4AFFF743FF1A4B44
:101724008A211A7803200223FFF780FF0095012302
:1017340087213120154AFFF735FF154B832100938C
:1017440060200123134AFFF72DFF134B8A211A78D7
:1017540066200223FFF76AFF104B8F2100932E208F
:1017640001230F4AFFF71EFF0E4B8F211A784F20DB
:101774000123FFF75BFF0C4B1C7037BDC310000047
:1017840052110000B92500083A000020BC250008C9
:10179400FF070000C125000839000020D7AD000074
:1017A400C62500083800002035000020F0B5E44BC1
:1017B40099B01C78012720004030C0B2FFF784FDA7
:1017C4000B902000FFF780FD0B99DE4BDE4A4B4364
:1017D400DE49424309680C900791DD4912130968F8
:1017E4001B130D91079909130F910D99091310916A
:1017F40007990905080D090A129180214901081A5F
:10180400000311900D980005040D091B09031391A1
:10181400510015919101521A09925A0016929A0197
:101824009B1A0A930023000A149004936B461B7CB2
:10183400099A1793099BDD173F231D40AD180A9A97
:10184400AD11D4171C40A4180C9BA411E4180B9BD5
:10185400ED1800D51EE3002C00DA0AE3002D00D1B8
:10186400D1E23E000597802029004004FEF7AAFC3F
:10187400290006901198FEF7A5FC0500002C00D164
:10188400C6E200DCFDE2802021004004FEF79AFC61
:10189400210008901398FEF795FCAE4C2021A44635
:1018A400109B0F9AA84200DCB5E2069C2D19059CFA
:1018B400121900240E94092A00D9B5E2092B00D983
:1018C400B2E20A245C436444A45C002C00D1A7E285
:1018D400069BED1A0E9B002B01D0089BC51A002D08
:1018E40000DCA4E280235B029D4200DBA1E2ABB2F8
:1018F400C020049A29005600974AC0029353FEF769
:10190400D7FB60230200984201D918001A001B1A61
:10191400924904985B08DBB20B5491499B180B5411
:10192400022C00D187E2E01E431E98418D4B4042B9
:1019340018408D4BC0180E9B002B02D18B4B9D423F
:1019440006DDFFF7DFFC8A4B9D4201DDFFF7DAFC81
:101954000523179A1A4201D1FFF7D4FC159A854B37
:1019640094469853049B169A01330493099B634449
:10197400944609930A9B63440A93049B302B00D03A
:1019840054E77D4B7D4E0E937D4B0E9C0F93724B13
:10199400059300236372737A002B59D00D9B7268F0
:1019A4003068D21A079B0C99C51A0B9B51435D43AF
:1019B40080236D181B049D424ADDAB120493079BE0
:1019C400A912181A0C9B58430B9B5A43492380189D
:1019D40080125843FEF7F6FB03002D33592B37D8FA
:1019E4003030059A43105B009B5AE12292009B1809
:1019F40007002D139D422BDC04996248FEF7E2FB9D
:101A04000500222800DC18E222250320684307226F
:101A1400222803DD0521FEF7D5FB020030215310F7
:101A2400FB1A6F10C91B6180317AE58001394D4280
:101A340069412172002198B21BB22380A2808B429B
:101A440005DD80185E22C30F82425941C9B261721A
:101A54000F9B0A340C369C429BD1002632004A4824
:101A6400422300219C463D4DCFB27F08EB5D93425B
:101A740000D9FAE13A4BDB5D9A4200D3E4E13D4BF5
:101A84007F00FB5A4F000131C3536029ECD133006E
:101A9400013208339BB292B2C0300A939A42DFD12A
:101AA4000E9B0493049B5B7A002B00D1E4E0049B1F
:101AB400022400229B5E0693049B02229B5E0793F2
:101AC400049B0427DF5F049B06229B5E0593059A13
:101AD400DB0F9B185B1008930A2F00DDBC10049BDE
:101AE40007251B7A06215A425341284A5B42134078
:101AF400274A0598944663440993059BDB170C9386
:101B04001D40059BED18079BED10EB180B93FEF79A
:101B140059FB05001F4B0821069A029301900B9B69
:101B240030000094FFF72AFC069A1A4BD219121BB4
:101B340008213000029301950B9B00942CE0C046D1
:101B44003B0000208C0A000074F5FFFF40000020D9
:101B54003C000020B82600082C070020FC060020CA
:101B6400CC060020C3380000EC320000EC2C00004E
:101B7400145000006C060020440600208C0700204E
:101B84006C060020808B080044000020F5D2FFFF83
:101B94007F4600009C220000FFF7F0FB069B6510C7
:101BA400ED18089AC14B3C1B0821300002930192A6
:101BB400079B2A000094FFF7E1FB079A0999531C3D
:101BC4006A1C032502910899023C033930000191F3
:101BD40000940821FFF7D2FB0C9A29002A40130035
:101BE400059A38009B18079A9B109A180B92FEF7D7
:101BF400E9FA0223AE4C069A0821821802943000B6
:101C0400019300930B9BFFF7B9FB29007800FEF7C3
:101C1400D9FA0223069A08218218023A3000029463
:101C2400019300930B9BFFF7A9FB0899FC178C46C3
:101C34002C40069AE419A410A418079AFB0F6244D6
:101C44000692059ADF19994B551A7F102200082134
:101C5400300002930195069B0097FFF78FFB0999CB
:101C6400069B023D023F0291300008210133621CB1
:101C740001950097FFF782FB049B0F9A0A330493A4
:101C8400934200D00EE7012409258A4F2F232C22EA
:101C940008213000029701940095FFF76FFB2B2376
:101CA400302208213000029701950094FFF766FB6B
:101CB400002503232F22082130000295019300936D
:101CC4002B33FFF75BFB15237B4C019317331A224D
:101CD40008213000029400931F33FFF74FFB1123B8
:101CE400764F0193DB181F220821300002970093DE
:101CF4002D33FFF743FB182302940C2424220821DC
:101D04003000009301943033FFF738FB102328226E
:101D1400082130000297019300933433FFF72EFB20
:101D24000A23674F2B220821300001930093029766
:101D34003633FFF723FB0723029504352E220821AF
:101D44003000019300953633FFF718FB1C23222241
:101D5400009308213833300002970195FFF70EFBFA
:101D6400584B1B78002B20D0514D33232A220821B5
:101D74003000029501940094FFF700FB524B2D2292
:101D8400029316230193103B08213000009328335B
:101D9400FFF7F4FA052301930D330093272208215A
:101DA400300002952533FFF7E9FA32000823103298
:101DB400009310215833454892B2FEF79DFF0A9BC9
:101DC400602B3FD1424B1B78002B01D0FFF786FCE0
:101DD400404B1B88002B07D0354B1A210093182049
:101DE40002233D4AFFF7DEFB19B0F0BD01233E009C
:101DF4005B420593FF2029000006FEF7E3F96942E0
:101E04000690129837E5354D3E000597069535E561
:101E14003248089041E5089C9B1900190E974AE541
:101E24000139002900D03DE53C002D4D5FE53D0022
:101E34005DE5204B5CE52B487DE5082800DBE4E507
:101E44000825E2E50A9E09E6072427420FD1593402
:101E5400E71A7F08DB199BB2D31A5F427B416446C1
:101E64005B422340204C1B190CE6204B0AE61E4B18
:101E740008E60123002D11D10126184D764205975D
:101E84000695FF2021000006FEF79CF961420890A8
:101E9400149800E5002CA9DA01235B42012605937E
:101EA4007642002D00DDDEE4A4E7C0468808000089
:101EB400FF070000FFFF0000E3200000EE830000A6
:101EC400D7AD0000340000203F050000440000208E
:101ED400350000201C000020CC250008FFFFFF3F38
:101EE40060EA0000F1210000C71000006210000049
:101EF40070B50025FEF7B6FAFEF7BCFBFFF722FA31
:101F04000F4B1D700F4B1D70FFF7CAFA0E48FFF7F9
:101F1400A3F80120FFF762FA0C4B0D4A596AB9394C
:101F24001180596A0B4A11805A6A0B4B1A80FFF7C9
:101F3400C1FA0123094C2370FFF738FC257070BDEA
:101F4400190000201800002030750000002C01400A
:101F540022000020200000201E0000202E0000206F
:101F6400F0B58C4B8C4D5F6A2B7887B0059000934D
:101F7400002B12D0FFF794FAFFF71CF800280AD0C0
:101F8400FEF744FF002301242B70844B1C70FFF7E1
:101F940091FA834B1C7007B0F0BD824B1A69824BD7
:101FA400120700D5D1E001221A70804B009A1A70F2
:101FB40000267F4B1B78002B05D0002E00D1D4E0E7
:101FC4000120FFF70BFA754CBFB223780193002B65
:101FD40000D10BE1FEF7F4FF002801D000232370A9
:101FE400734B1B78002B00D0B7E1002E00D02BE2FE
:101FF4000022704B1A70FFF753FA6F4A1388FB1ACA
:102004009BB2E52B3AD96D4B6D4D1B681780049339
:102014006C4B1B6805936C4B03936B7A002B26D097
:102024002B680193019A049B9C1A6B680293029A91
:10203400059B9E1A002C00DD27E200D027E2002E2B
:1020440000DD27E200D027E2019B02991C19200041
:10205400FFF764F9002801D02C600194029B0198D9
:102064009E193100FFF75AF9002800D06E60039BD7
:102074000C35AB42D1D10122494B1A70822253480C
:1020840092000388FB1A9BB2934225D34B4B4C4AD4
:102094001C684C4B1D684E4B9C46537A002B00D158
:1020A40005E213681B1BD9175B184B405168491B89
:1020B400CE17891971405B18634500DDF7E1454A85
:1020C40007801378082B00D8E9E1083B137001223C
:1020D400414B1A70324B1A70354C2378002B01D0C7
:1020E400FFF7DEF900233D4AD15C002907D10C3308
:1020F400302BF9D13A4B1A88002A00D11F80384B73
:102104001B88002B08D0E122FB1A9BB2D200934219
:1021140002D30020FFF762F9214D2B78002B00D168
:10212400CEE1FFF743FB00232E4A2B701378002BDC
:1021340006D0013BDBB21370002B01D001232B70BE
:102144002378002B00D126E718E01B78002B00D160
:102154002EE7164A1378012B02D80133DBB2137031
:10216400013B5A1E9341DEB223E7FEF723FF00280A
:1021740000D025E70F4B1E70FFF792F91A4B1B781E
:10218400002B00D007E7FFF729FA0122164B1A703B
:1021940001E7C046002C01402F0000202D00002044
:1021A4002E00002000080140170000201600002027
:1021B40036000020180000202000002040000020ED
:1021C4008C0700203C000020BC0700201E000020DB
:1021D400970800003A0000203500002095070020F1
:1021E4001C000020340000202C000020FEF7E2FE3A
:1021F400B74C00281CD0B74B019A1F80B64B1A70FD
:102204002378002B00D1A0E0E122B44B52001B88BC
:10221400FB1A9BB2934200D997E0B14A1378283B4A
:1022240013700122019B2370AE4B1A70AE4B1A70CF
:10223400FEF7BAFE002844D0A64B1B88FB1A9BB2BB
:10224400B32B3ED9A44A1378002B05D0A74B1B8887
:10225400FB1A9BB2902B34D9012313700023A44A98
:1022640023701370A14B1F809D4B1D7828004030B4
:10227400C0B2FFF729F804002800E625FFF724F888
:102284006D006C439B4B454304931B6824130293DA
:10229400E318994C2D132168180003936D18FFF768
:1022A4003DF8002803D0039A049B02921A60290087
:1022B4000298FFF733F8002800D0256001228A4BEA
:1022C4001A70FEF77DFE824A002826D0824B85488C
:1022D4001B78002B1ED10378002B09D180490B7881
:1022E40014330B7001237D4913700F807E490B70EA
:1022F4008249834C0B88FB1A9BB2A34202D9002467
:102304007B4B1C700F807A490B780133DBB2092BAD
:102314001ED80B700023037001981378002B09D08A
:10232400E1216E4B49001B88FB1A9BB28B4201D9F9
:1023340000231370002800D152E6FFF7B1F8012200
:10234400704B1A70FEF73EFD25E60022654B6EE7E2
:1023540000230B7001330193DCE7002E00D147E624
:10236400FFF79EF8684B1B88FB1A9BB2B82B00D86A
:1023740043E6664A1378002B00D13EE6013B137016
:102384000222634B01251A70624B013A1A70564BB4
:102394006D421A70524B1C7820004030C0B2FEF7D8
:1023A40093FF03902000FEF78FFFAF220024514BD0
:1023B40092001B68844601934F4B57481B68049353
:1023C400564BDB8F9B180593554B0293437A002B96
:1023D40022D0049A436801689B1A019A8E1A039AC0
:1023E400564362465A43B218002A15DD019E711AFB
:1023F40066467143039E7343CB18DE179B197340E3
:102404009B009A4208DD059913138B4204DC029B5E
:102414009A4201DA2500029201340C30042CD5D101
:102424006B1C0ED00C226A433B4B9B181A7A013A60
:10243400D2B21A72002A04D15A723A4A137801337A
:102444001370314B1F80D8E5374B1A78002A0DD111
:10245400364A1278002A85D101321A70344B1F8013
:10246400059BDB070ED4FEF733FD7BE7E122304BFF
:10247400D2001B88FB1A9BB29342F1D301222B4B4F
:102484001A706DE7FEF72AFD6CE75C24D7E55C243F
:102494006442D4E55C26D7E55C267642D4E5002187
:1024A40011700122234B1A70234B19700FE6009B05
:1024B4000C320133DBB20093042B00D0EDE50BE6C4
:1024C400144B1B78002B00D13AE6FFF707F937E6E7
:1024D400330000202A0000203200002028000020C1
:1024E4003B000020310000202E00002024000020AA
:1024F40030000020400000203C0000202600002086
:10250400980800002F00002022000020390000203D
:1025140034000020350000208C0700202E07002006
:10252400FFFFFF7F38000020190000201800002062
:102534001A000020360000202C00002070B5002472
:10254400FDF790FFFEF796F8FEF7FCFE0E4B1C70AD
:10255400FEF7A6FF0D4B1C70FEF7ACFF0C4D2B785D
:10256400A34201D00B4B1C7001260B4C2670FFF7C5
:102574001DF9002323702B78002B03D0FFF72EF8CE
:10258400044B1E7070BDC046180000202F000020B0
:10259400360000202C0000202E000020594F55202A
:1025A40044494544004452415720544F2052455316
:1025B4005441525400485000444F4F4D00414D4D3A
:1025C4004F004B494C4C53004152454120434C452C
:1025D4004152000205070505060506050603040425
:1025E4000403060505050607040604070704060494
:1025F4000403040505030505070505070202020790
:102604000101010502050506050504040404070586
:102614000707050505070707050205050502060561
:10262400060404020505070306050605050304025E
:102634000106070202020205050505070505050551
:102644000205050707050505020505050502020241
:10265400070102040707050505070206020207062B
:102664000102040706010301060505070101070429
:10267400060106030406050207010202020205021E
:102684000502020503010600020002000000070023
:10269400000000000018000000480000008800004E
:1026A4000078000000580000007800000078000066
:1026B40000280000010101010101010101010100E3
:1026C40000000000000000010100020200030002FB
:1026D40000010100000200030002000101030000E8
:1026E40000000000000101030002030302000301D3
:1026F40001000002000002000001010002020002C9
:1027040002000001010000000000000000010101BE
:10271400010101010101010100006500C9002D0151
:102724009101F5015902BC021F038103E303440430
:10273400A50405056405C2051F067C06D7063207F5
:102744008B07E3073A088F08E40837098809D80992
:10275400260A730ABF0A080B500B970BDB0B1E0CDF
:102764005E0C9D0CDA0C150D4E0D850DB90DEC0D9E
:102774001C0E4B0E770EA10EC80EEE0E110F310F6C
:10278400500F6C0F850F9C0FB10FC40FD40FE10FC6
:0C279400EC0FF50FFB0FFF0F0010000012
:04000005080003A14B
:00000001FF
