:020000040800F2
:10000000C80F0020A1030008E1030008E103000875
:1000100000000000000000000000000000000000E0
:10002000000000000000000000000000E1030008E4
:100030000000000000000000E1030008E3030008E6
:10004000E1030008E1030008E1030008E103000800
:10005000E1030008E1030008E1030008E1030008F0
:10006000E1030008E1030008E1030008E1030008E0
:10007000E1030008E1030008E1030008E1030008D0
:10008000E1030008E1030008E1030008E1030008C0
:10009000E1030008E1030008E1030008E1030008B0
:1000A000E1030008E1030008E1030008E1030008A0
:0400B000E103000860
:1000B400002243088B4274D303098B425FD3030AA3
:1000C4008B4244D3030B8B4228D3030C8B420DD3B6
:1000D400FF22090212BA030C8B4202D31212090244
:1000E40065D0030B8B4219D300E0090AC30B8B4282
:1000F40001D3CB03C01A5241830B8B4201D38B0330
:10010400C01A5241430B8B4201D34B03C01A5241D4
:10011400030B8B4201D30B03C01A5241C30A8B4217
:1001240001D3CB02C01A5241830A8B4201D38B0202
:10013400C01A5241430A8B4201D34B02C01A5241A6
:10014400030A8B4201D30B02C01A5241CDD2C30918
:100154008B4201D3CB01C01A524183098B4201D394
:100164008B01C01A524143098B4201D34B01C01A7F
:10017400524103098B4201D30B01C01A5241C308F7
:100184008B4201D3CB00C01A524183088B4201D366
:100194008B00C01A524143088B4201D34B00C01A52
:1001A4005241411A00D20146524110467047FFE7BE
:1001B40001B5002000F0F0F802BDC0460029F7D0D8
:1001C40076E7704703460B437FD4002243088B42F3
:1001D40074D303098B425FD3030A8B4244D3030BCA
:1001E4008B4228D3030C8B420DD3FF22090212BA8F
:1001F400030C8B4202D31212090265D0030B8B420B
:1002040019D300E0090AC30B8B4201D3CB03C01AF4
:100214005241830B8B4201D38B03C01A5241430BCF
:100224008B4201D34B03C01A5241030B8B4201D3BF
:100234000B03C01A5241C30A8B4201D3CB02C01A2A
:100244005241830A8B4201D38B02C01A5241430AA2
:100254008B4201D34B02C01A5241030A8B4201D391
:100264000B02C01A5241CDD2C3098B4201D3CB0138
:10027400C01A524183098B4201D38B01C01A5241E7
:1002840043098B4201D34B01C01A524103098B42EB
:1002940001D30B01C01A5241C3088B4201D3CB00D6
:1002A400C01A524183088B4201D38B00C01A5241B9
:1002B40043088B4201D34B00C01A5241411A00D269
:1002C40001465241104670475DE0CA0F00D04942D2
:1002D400031000D34042534000229C4603098B4242
:1002E4002DD3030A8B4212D3FC22890112BA030ACA
:1002F4008B420CD3890192118B4208D3890192114C
:100304008B4204D389013AD0921100E08909C309D0
:100314008B4201D3CB01C01A524183098B4201D3D2
:100324008B01C01A524143098B4201D34B01C01ABD
:10033400524103098B4201D30B01C01A5241C30835
:100344008B4201D3CB00C01A524183088B4201D3A4
:100354008B00C01A5241D9D243088B4201D34B00BF
:10036400C01A5241411A00D20146634652415B1001
:10037400104601D34042002B00D5494270476346E2
:100384005B1000D3404201B5002000F005F802BD27
:100394000029F8D016E770477047C0460A480B4951
:1003A4000B4A002302E0D458C4500433C4188C42CE
:1003B400F9D308480849002201E002600430884269
:1003C400FBD300F053FEFEE70000002000000020F5
:1003D400B028000800000020C4070020FEE7704792
:1003E40001220D4B19680A431A600222196811424E
:1003F400FCD0102009490860D9690A43DA61002158
:100404000722074B19609A62064ADA6201225A618E
:1004140019611A607047C046001002400020024073
:1004240000040040E70300000023F0B501251E008E
:100434000849094C834200D1F0BD0A692A42FCD024
:100444000E612268054F01322260054A01331760AC
:10045400F0E7C0460004004000000020AAAA000003
:100464000030004012232D4AF0B52D4913602D4B66
:10047400802619602C4B2D4958682D4C08402D4975
:100484002D4D014359602D482D49F6010860802106
:10049400186849040143802019602A4980042560B2
:1004A4001F68074202D05F68374202D10139002930
:1004B400F5D11C68244904420CD124480860102159
:1004C40011605A680D398A435A601A6820490A40F3
:1004D4001A60F0BD1F4808601F492048086058682A
:1004E4001F490860D86A1F490860186B1E490860D4
:1004F40018681E4908605968490406D403205968DD
:100504008143596010211160DFE700212F22184B2D
:1005140019609A622E3A5A611961D9E700200240A3
:10052400111100AA4000002000100240FCFFC2FF8D
:100534000030004002001000AAAA0000222200BBE2
:1005440044000020400D030048000020555500EEF3
:10055400FFFFFFFE333300CC4C000020444400DD99
:100564005000002054000020580000205C000020AF
:100574000004004001212F4BF0B59A692E4C0A4328
:100584009A618022D869520502432C48DA610268D4
:100594000327224002608022294C2A4D20682A4EDB
:1005A40090432060294C2A60206890432060284CA6
:1005B400206810432060274C22603068B843084309
:1005C400306025487F1806683E43066040BF20BF60
:1005D400226020BF0668BE430660286890432860F6
:1005E40022601A681143196002211C4A18680842E3
:1005F40002D1013A002AF9D10222D96900200A4322
:100604000721DA61164A106091621649D16201210C
:1006140051611061116080229C69520122439A61E8
:10062400114B124A18609A62114ADA6259611861D0
:100634001960F0BD00100240FF0FFFFF0C000140E5
:10064400000401400404014000700040080401401B
:100654000C0401401404014010ED00E0400D0300BF
:1006640000040040E7030000002C01403F1F00008D
:10067400FFFF000080220D4B5201996980200A433C
:1006840000219A610A4AC00111605B680340584224
:10069400434108485B42034007481B189362074BD9
:1006A400D36201235361116113607047001002404B
:1006B400002C0140C063FFFF7FBB0000FFFF000070
:1006C4000222054B99681142FCD0044A1070802222
:1006D40099681142FCD17047002001400C20014070
:1006E400022303498A681A42FCD0024B18707047EF
:1006F400002001400C200140802210B5024B12045E
:100704009A61FFF7DDFF10BD000C0140802210B597
:10071400024B9A61FFF7D4FF10BDC046000C0140A4
:10072400832340499B008A6910B513438B613E4B78
:100734003E481A6802401A60802218685200024338
:1007440010201A605A6882435A60802252039A61C8
:100754001A68374802401A60882218681201024356
:100764001A601A6A3348024028201A625A6882437F
:100774005A60CC229868120102439A601A682E4883
:1007840002401A60A0221868D2010243C0201A60F5
:100794005A6882435A60F0229868120202439A60AF
:1007A400264A106880008008106080201468C00504
:1007B40020431060224C506820405060C020946850
:1007C40000062043906080200002906180209861A0
:1007D400403898610423886903438B61A023DB03B9
:1007E40093611368174803401360882314685B01FE
:1007F4002343502413605368A3435360D3680340D6
:10080400D360496880230A00DB011A40194200D0F2
:100814001822D1239B0013430B4A13600023536017
:1008240010BDC04600100240000C0140FFFCFFFF59
:100834003FF3FFFFFF0F0FFFFF0FFFFF0008014013
:10084400FF7FFFFFFFCCFFFF00200140F8B507004A
:1008540016000D001C002A20FFF74EFF380AFFF790
:1008640055FFF8B2FFF752FF300AFFF74FFFF0B21F
:10087400FFF74CFF2B20FFF73FFF280AFFF746FF47
:10088400E8B2FFF743FF200AFFF740FFE0B2FFF7AB
:100894003DFF2C20FFF730FFF8BD0000F0B5030A40
:1008A40085B00093C3B201938023204E1B06B3612D
:1008B4001F4A204BA0241A6040221F4B1F4F196867
:1008C4009143196019680A4300211A601C4B1D4AA0
:1008D40008001A609F237F22FFF7B8FF80221A4B7B
:1008E4009A611A4B1A4A1A6080251A4B3B60009889
:1008F400013DFFF7F5FEADB20198FFF7F1FE002DC3
:10090400F5D1013CA4B2002CEED196235B000393F5
:10091400039B5A1E0392002BFAD10F4B0F4A1A6005
:1009240080231B02B36105B0F0BDC046000801403E
:10093400000011EE90000020002001400030004033
:1009440094000020000022EE000C014098000020DA
:10095400000033EEAAAA00009C000020000044EE30
:10096400F8B54027B84EFFF7DBFEB7610A20FFF762
:100974005BFD8023B54DB64CDB03B3610A202560D3
:10098400FFF752FDB7610A20FFF74EFD8023B14EF9
:100994001B06B3611120FFF7AFFE25607820FFF737
:1009A40043FD2560FF20FFF7A7FEA520FFF7AEFE5D
:1009B4003E20FFF7A1FE0820FFF7A8FE3A20FFF72C
:1009C4009BFE6520FFF7A2FE8220FFF795FE002024
:1009D400FFF79CFE9820FFF78FFE0020FFF796FE9E
:1009E4006320FFF789FE0F20FFF790FE6420FFF7D6
:1009F40083FE0F20FFF78AFEB420FFF77DFE34202C
:100A0400FFF784FEB520FFF777FE3020FFF77EFE68
:100A14008320FFF771FE1320FFF778FE8620FFF78F
:100A24006BFE0420FFF772FE8720FFF765FE192096
:100A3400FFF76CFE8820FFF75FFE2F20FFF766FEAE
:100A44008920FFF759FE3620FFF760FE9320FFF759
:100A540053FE6320FFF75AFE9620FFF74DFE8120D8
:100A6400FFF754FEC320FFF747FE1020FFF74EFEAA
:100A7400E620FFF741FE0020FFF748FE9920FFF72C
:100A84003BFE0120FFF742FE4420FFF735FE002025
:100A9400FFF73CFE7020FFF72FFE0720FFF736FE1E
:100AA4007120FFF729FE1920FFF730FE7220FFF7AF
:100AB40023FE1A20FFF72AFE7320FFF71DFE1320E2
:100AC400FFF724FE7420FFF717FE1920FFF71EFE20
:100AD4007520FFF711FE1D20FFF718FE7620FFF7A3
:100AE4000BFE4720FFF712FE7720FFF705FE0A20D2
:100AF400FFF70CFE7820FFF7FFFD0720FFF706FE47
:100B04007920FFF7F9FD4720FFF700FE7A20FFF771
:100B1400F3FD0520FFF7FAFD7B20FFF7EDFD09202B
:100B2400FFF7F4FD7C20FFF7E7FD0D20FFF7EEFD56
:100B34007D20FFF7E1FD0C20FFF7E8FD7E20FFF7A5
:100B4400DBFD0C20FFF7E2FD7F20FFF7D5FD082039
:100B5400FFF7DCFDA020FFF7CFFD0B20FFF7D6FD4C
:100B6400A120FFF7C9FD3620FFF7D0FDA220FFF733
:100B7400C3FD0920FFF7CAFDA320FFF7BDFD0D202B
:100B8400FFF7C4FDA420FFF7B7FD0820FFF7BEFD63
:100B9400A520FFF7B1FD2320FFF7B8FDA620FFF73E
:100BA400ABFD3B20FFF7B2FDA720FFF7A5FD042016
:100BB400FFF7ACFDA820FFF79FFD0720FFF7A6FD78
:100BC400A920FFF799FD3820FFF7A0FDAA20FFF721
:100BD40093FD0A20FFF79AFDAB20FFF78DFD12204D
:100BE400FFF794FDAC20FFF787FD0C20FFF78EFD87
:100BF400AD20FFF781FD0720FFF788FDAE20FFF74A
:100C04007BFD2F20FFF782FDAF20FFF775FD072046
:100C1400FFF77CFDFF20FFF76FFD0020FFF776FD57
:100C24003620FFF769FD9820FFF770FD2920FFF7B4
:100C340063FD0A20FFF7F8FB80231B02B361002049
:100C4400FFF72CFEF8BDC046000C0140AAAA000024
:100C54000030004000080140F0B587B001930CABB0
:100C64001B8816001A0ADBB20393802302924022E7
:100C74001C4F1B06BB611C4B1C6894431C601C6806
:100C840022431A60019B721E013BCB1882189BB24F
:100C940092B2FFF7DBFD80220024144B9A61019B82
:100CA4009C420CD196235B000593059B5A1E05922A
:100CB400002BFAD180231B02BB6107B0F0BD0025D5
:100CC4000B4B0C4A1A60B54202D10134A4B2E6E7D8
:100CD4000298FFF705FD01350398FFF701FDADB25A
:100CE400F1E7C0460008014000200140000C01402B
:100CF40000300040AAAA0000F0B589B003930EABFF
:100D04001B880290049380230800110040220025D0
:100D1400224F1B06BB61224B2E001C6894431C60AF
:100D24001C6822431A60049B039A013B013ACB18C6
:100D340082189BB292B2FFF789FD8022194B9A6107
:100D4400049B9E420CD196235B000793079B5A1E7B
:100D54000792002BFAD180231B02BB6109B0F0BDBE
:100D6400114B124A6C001A60029B029AE418039B0E
:100D7400ED186B009B180593059B9C4202D101362C
:100D8400B6B2DDE723880234180A0193FFF7A8FC02
:100D94006B461879FFF7A4FCEEE7C0460008014053
:100DA40000200140000C014000300040AAAA0000CD
:100DB4001022034B002801D0802252039A6170470D
:100DC400000C0140402270B5802680250D4B0E4C4E
:100DD400196836069143196019682D020A431A608E
:100DE4002820A661FFF788FCA5610A20FFF71CFBF9
:100DF400A6611020FFF780FCA5610520FFF714FB16
:100E040070BDC04600200140000801404022F8B5F2
:100E14008025134B134C19682D06914319601968EA
:100E240011200A431A60A561FFF766FC80230E4E69
:100E34000E4F1B02A36178203760FFF7F5FA376085
:100E44002920A561FFF758FC80231B02A3610A2017
:100E5400FFF7EAFA8022064B52039A61F8BDC046B6
:100E6400002001400008014000300040AAAA000010
:100E7400000C0140042380200E4A10B591698003C0
:100E84000B4393610C4B0D4998611A680A401A6030
:100E940080221C68D200224320241A605A68A2438C
:100EA4005A609A680A409A60DA680A40DA6098617F
:100EB40010BDC0460010024000080140FFF3FFFFD0
:100EC4008022024B92039A617047C0460008014099
:100ED4002022014B9A617047000801408022024B96
:100EE40092039A617047C0460008014004230E4AE9
:100EF40091690B4393610D4B0D491A680A401A60BE
:100F0400DA680A40DA608022D968D2010A43DA60DA
:100F14000023084A1370084A1370084A1370084AD9
:100F24001370084A13807047001002400008014003
:100F3400FF3FFFFF0A0000200900002008000020F6
:100F44000400002006000020012030B504000F4AF0
:100F54000F4912690B78D209944322000C709C4308
:100F640093435D1EAB410B490C700B490B70002C75
:100F740006D00A4B5A6A0A4B1A800A4B187030BDC5
:100F8400002AFCD1074B1A70F9E7C046000801405B
:100F94000A0000200900002008000020002C014065
:100FA4000600002004000020014B18787047C0465A
:100FB4000A000020014B18787047C0460900002041
:100FC400014B18787047C04608000020054B1B7879
:100FD400181E05D0044B586A044B1B88C01A80B2F3
:100FE4007047C04604000020002C01400600002089
:100FF4008023124A5B0111680B431360104B114AA2
:101004001A600423104A91690B43104993610A68DA
:101014000F4B1A40B0231B05134300220B600D4BEA
:101024001A600D4B06321A600C4B053A1A60F02216
:10103400196852030A431A607047C04614100240EC
:101044002C10024004380000001002401408024032
:10105400FFFFFFF030080240380802400808024051
:10106400014B18807047C046140000200423F0B5DB
:101074007F4E804DB26985B01343B3612A687E4BBD
:101084007E491A4088235B0113432B605023AB61D4
:10109400736A7B4A7B4C13607B4A7C4F11605B060E
:1010A40042D57B4B1A687B4B9A423DD17A4B7B4AA3
:1010B40023607B4B2360062313607A4B7A4A1A60C1
:1010C40027602760FFF7D6FE2B6878490B402B601A
:1010D4008023EA68DB010A401343EB600223F269D0
:1010E400002113430722F361714B19609A62714A1C
:1010F400DA6201225A6119611A602760FFF73AFA2D
:1011040032260120FFF790F980222B691342F4D193
:10111400013EB6B2002EF4D113002A691A4200D15E
:101124009DE000235A4A13605B4B5C4A23605C4B8E
:101134002360062313605B4B5B4A1A6027602760B9
:10114400FFF798FEFFF74CF9C8202760FFF76CF90A
:101154002760FFF74DFFFFF703FC0120FFF728FE90
:10116400FFF788FAFFF7ACFEFFF7C0FE00F0AEFE13
:10117400514A536A9BB20093536A504A1380002326
:1011840001920293009B4C4A2760526A92B20092E9
:101194004B4A1188002937D0019A00981288821A84
:1011A40092B2914230D8FFF799FE4021454A14206B
:1011B40013688B4313605023AB61FFF735F9354B4C
:1011C400334A13602760FFF7D5F932260120FFF771
:1011D4002BF980222B691342F4D1013EB6B2002EC2
:1011E400F4D12B4B1E6013002A6927601A42FBD0EE
:1011F400FFF7B6FB0120FFF7DBFD01F0A5F92E4B4D
:10120400019A5B6A9BB21380009AD21A92B2202A86
:10121400B9D9FFF799FEFFF7C7FE002802D0019B5A
:10122400009A1A80284E3388002B1AD0274B039338
:101234001B68002B15D0FFF7C9FE3388834210D8F2
:10124400234E3378002B04D1039B1B68984701235A
:101254003370029800F072FE029B013391E727601D
:101264005BE7FFF7A1FE0028F3D1194B1870F0E7F4
:101274000010024000080140FFCCFFFFEFBEADDECE
:10128400F01F002000300040F41F0020AAAA000034
:10129400F81F0020003E55D0CCCC000004300040A4
:1012A4005555000008300040FF0F0000FF3FFFFFCE
:1012B40000040040E7030000002C0140120000205D
:1012C4001400002000200140100000200C00002029
:1012D4000B0000203F22830910400C4A002B02D14E
:1012E4004000105E7047012B04D13F331B1A5B0092
:1012F400D05EF7E7022B04D14000105A404200B2FE
:10130400F0E740231B1A5B00D05AF7E72C280008AB
:101314000300020B5B05C006D202000FDB0E104374
:101324005B011843704700000213531E0020072B73
:101334000AD809134B1E072B06D80A304143034B26
:101344005B18985C43425841C0B27047C8270008F4
:101354000423094A91690B43C0219361074B1A681E
:101364008A431A60DA688A43DA600022044B1A70EE
:10137400044B1A707047C046001002400008014038
:101384001700002016000020F0B507A90E88010000
:10139400984200DA1900069C1B19040008349C4288
:1013A40000DD1C00A14210DA059B081AD518602341
:1013B400434308489B185B001B181F001000A842F9
:1013C40004DB0131C0338C42F7D1F0BD3E800130E3
:1013D4000237F4E744000020F0B5214A21490028EF
:1013E40034D0C024204B64011C60204B64251C6055
:1013F40000231F4C23701F4C2570322414701E4A86
:10140400137001220A701D4A13701D4A13700021C3
:1014140001241C4B1C4D1D4F8A00AE58BA581E6047
:101424005A600222904203D98C42924152420232C3
:1014340001311A725C720C330429EDD10022144B71
:101444001A80144B1C70144B1C70F0BD0878137870
:101454000130C0B208704F2BD9D81233D6E7C0463A
:101464003900002037000020400000203C0000200C
:101474003B0000203A000020380000203600002005
:101484002C00002094070020B8270008A827000893
:101494001C000020350000202E00002010B5FFF7AE
:1014A4001DFD0022014B1A7010BDC046190000201A
:1014B40037B50020FFF7F2F964230E210C4D1A0012
:1014C40008000095FFF7C8FB0024602310211A00D0
:1014D40008000094FFF7C0FB0095022380227421CA
:1014E4002000FFF7B9FB0122024B1A7037BDC0463A
:1014F4005211000035000020F0B587B01E000CAB7F
:101504001B880C0005931300413BD9B204901929A0
:101514001CD81A00052300275343204A9B18039321
:101524000020039BDB5D02930223029A1B1ADA401C
:1015340001210A4218D14018C0B20328F4D1341949
:101544000137A4B2052FEBD107B0F0BD1300303B37
:10155400092B01D8163ADDE73A2A03D02D2AF3D114
:10156400083AD7E72422D5E70500029A0121DA4098
:101574000A4204D00135EDB2013B032DF5D12A1AFC
:101584007043049B72431818059B80B2009321009A
:10159400330092B2FFF760FB2800CEE7E325000892
:1015A400F0B51E000400150085B00AAB1F88B30017
:1015B400039102932A78002A01D105B0F0BD202AB4
:1015C40005D03300200003990097FFF795FF029B95
:1015D40001351C19A4B2EDE7002313B51F240093B1
:1015E40068222D210C203033FFF736FB02236822BA
:1015F4002D210C200094FFF72FFB022335212620F8
:10160400064A0094FFF7CCFF054B4A2100932000C3
:101614000123044AFFF7C4FF13BDC046AC250008EC
:10162400FFFF0000B5250008F0B585B006001400E2
:101634001D00284F0391632A2FD964211000FEF75F
:1016440037FD3030C2B22B00300003990097FFF70A
:1016540053FFAB0020006421F618FEF7AFFDCCB2B7
:1016640020000A21FEF724FDB6B23030C2B22B00AE
:10167400300003990097FFF73FFF0A212000FEF78F
:101684009DFDAB003031CAB298192B00039980B28A
:101694000097FFF731FF05B0F0BD092A14D90A21DC
:1016A4001000FEF705FD3030C2B22B003000039964
:1016B4000097FFF721FF0A212000FEF77FFDA80015
:1016C4003031CAB23018E0E730340399E2B20097FF
:1016D400DFE7C046FFFF000037B58022264B11002C
:1016E400009300202023FFF7B7FA802200241F254F
:1016F400224B1100009300200223FFF7ADFA1023C0
:101704002C2283212A200094FFF7A6FA00950123B6
:10171400832103201A4AFFF743FF1A4B8A211A78C0
:1017240003200223FFF780FF009501238721312046
:10173400154AFFF735FF154B8321009360200123E1
:10174400134AFFF72DFF134B8A211A7866200223D0
:10175400FFF76AFF104B8F2100932E2001230F4ABD
:10176400FFF71EFF0E4B8F211A784F200123FFF73E
:101774005BFF0C4B1C7037BDC310000052110000FE
:10178400C52500083A000020C8250008FF0700000E
:10179400CD25000839000020D7AD0000D22500086F
:1017A4003800002035000020F0B5E34B99B01C78D8
:1017B400012720004030C0B2FFF78CFD0B902000C1
:1017C400FFF788FD0B99DD4BDD4A4B43DD4942436E
:1017D40009680C900791DC49121309681B130E91D8
:1017E400079909130F910E99091310910799090587
:1017F400080D090A129180214901081A0003119069
:101804000E980005040D091B09031391510015914D
:101814009101521A09925A0016929A019B1A0A933C
:101824000023000A149004936B461B7C099A1793B7
:10183400099BDD173F231D40AD180A9AAD11D4173B
:101844001C40A4180C9BA411E4180B9BED1800D5A4
:1018540003E3002C00DAEFE2002D00D12CE23E007D
:101864000597802029004004FEF7ACFC290006906F
:101874001198FEF7A7FC0500002C00D121E200DC42
:10188400E2E2802021004004FEF79CFC2100089045
:101894001398FEF797FCAD4C2021A446109B0F9A99
:1018A400A84200DC10E2069C2D19059C12190024A4
:1018B4000D94092A00D910E2092B00D90DE20A245B
:1018C4005C436444A45C002C00D102E2069BED1A44
:1018D4000D9B002B01D0089BC51A002D00DCFFE1F5
:1018E40080235B029D4200DBFCE1ABB2C020049A82
:1018F40029005600964AC0029353FEF7D9FB602391
:101904000200984201D918001A001B1A9149049840
:101914005B08DBB20B5490499B180B54022C00D18A
:10192400E2E1E01E431E98418C4B404218408C4B30
:10193400C0180D9B002B02D18A4B9D4206DDFFF798
:10194400E7FC894B9D4201DDFFF7E2FC0523179A72
:101954001A4201D1FFF7DCFC159A844B9446985344
:10196400049B169A01330493099B63449446099398
:101974000A9B63440A93049B302B00D054E77C4BAE
:101984007C4F10937C4B109D0693714B089300235E
:10199400EB727B7A002B62D00E9B7A683868D21A7D
:1019A400079B0C99C61A0B9B51435E438023761800
:1019B4001B049E4253DDB3120593079BB112181A00
:1019C4000C9B58430B9B5A4349238018801258435D
:1019D400FEF7F8FB03002D330400592B3FD83313D3
:1019E4003034089A049363105B009B5AE1229200FE
:1019F4009B18049A9A4232DC05996048FEF7E2FB90
:101A04000600222800DC71E122260320704307230C
:101A1400222803DD0521FEF7D5FB03005A10A41A82
:101A240030227010121A80206A80049AA1B224B263
:101A34002C80AB80EE804002824200DB504A2A8137
:101A44003A7A013A50424241AA720022944205DD98
:101A54005E20C918CB0F88425A41D2B2EA72069B63
:101A64000C350C379D4292D1002304936B461F8A98
:101A7400444B3A0018000F9360239C460021354CD8
:101A8400CEB27608A35D934200D945E1324B9B5D0B
:101A9400934200D82FE1354B7600F35A4E000131C2
:101AA40083536029ECD13B000132083392B29BB2DC
:101AB400C0309A42E2D10023109C05931491E37A3A
:101AC400002B00D02CE1059B0C340133DBB20593D1
:101AD400042BF4D101240925294E2F232C2208217B
:101AE4003800029601940095FFF74EFC2B23302218
:101AF40008213800029601950094FFF745FC002563
:101B040003232F22082138000193009302952B33DD
:101B1400FFF73AFC15231C4C019317331A220821B2
:101B24003800029400931F33FFF72EFC1123174E45
:101B34000193DB182CE0C0463B0000208C0A000017
:101B440074F5FFFF400000203C000020C827000877
:101B54003407002004070020D4060020C338000006
:101B6400EC320000EC2C000014500000740600203D
:101B7400440600209407002074060020808B08008F
:101B8400FFFF000044000020E3200000EE8300007B
:101B94001F2208213800029600932D33FFF7F4FB2F
:101BA400182302940C242422082138000093019461
:101BB4003033FFF7E9FB102328220821380002966E
:101BC400019300933433FFF7DFFB0A23A94E2B2242
:101BD400082138000193009302963633FFF7D4FBB3
:101BE40007230193059B2E220821380000930295B8
:101BF4003D23FFF7C9FB059B222201931C230821E7
:101C04000093380038330296FFF7BEFB9A4B1B78DB
:101C1400AB4220D0994D33232A2208213800029563
:101C240001940094FFF7B0FB954B2D2202931623E9
:101C34000193103B0821380000932833FFF7A4FBDD
:101C4400052301930D3300932722082138000295C0
:101C54002533FFF799FB3A00082310320093102133
:101C64005833884892B2FFF747F8049B083304932B
:101C7400602B00D0FAE6844B1B78002B01D0FFF7D1
:101C84002BFD824B1B88002B07D07C4B1A21009321
:101C9400182002237E4AFFF783FC19B0F0BD01230C
:101CA4003E005B420593FF2029000006FEF78AFAF6
:101CB400694206901298DCE5764D3E00059706953C
:101CC400DAE574480890E6E5089C9B1900190D971D
:101CD400EFE50139002900D0E2E53C006E4D04E651
:101CE4003D0002E66D4B01E66D4822E6082800DB64
:101CF4008BE6082689E607252E420FD16546EE1AA3
:101D040076089B199BB29B1A5E42734142255B4243
:101D14002B40644D5B19C1E6634BBFE6614BBDE6E6
:101D24000022A35E0A930222A35E0421625E0B9248
:101D34000621625E0C92A27A0D92002A3AD05B4A86
:101D44000992564A049D0E929D4200DA1D00049A9F
:101D54000C99083259180891914200DD0892049AAE
:101D64001499AA1A5143142252425A4306911192C9
:101D7400089BAB4200DCA6E614206843119B0C9937
:101D8400C018FEF71FFA069B0F9A5B009B180D22E2
:101D94001293002350430793454B0A9E1B18139339
:101DA4000A9B0B9A9B189E4208DB069B0135603305
:101DB4000693DDE73F4A09923F4AC3E70B99079828
:101DC400FEF700FA139B1A5C7310D9B2202A21D0B3
:101DD4002F291FD8394920891591FF210B401599C6
:101DE4005B005B5AAF2189005B18984212D80E9BA6
:101DF4004C2A0CD013D8099B422A08D01300483B24
:101E04005A1E93412E4A5B4213402E4A9B18129944
:101E140072008B52079B01360C330793C0E7592A93
:101E240008D10D9A53425341FC225B42D200134025
:101E34001F33ECE7244BEAE70123002D12D10126DE
:101E4400144D764205970695FF2021000006FEF703
:101E5400B9F96142089014981BE5002C00DB1EE7D9
:101E640001235B42012605937642002D00DDF8E450
:101E740019E7C046D7AD000034000020FF0700007A
:101E84003F05000044000020350000201C00002015
:101E9400D8250008FFFFFF3F60EA0000FFFF0000B5
:101EA400F1210000C7100000621000007F4600000E
:101EB400A1260008741900009C22000034070020A9
:101EC400D0ABFFFFB85C00008808000070B50025A7
:101ED400FEF7C8FAFEF7CEFBFFF73AFA0F4B1D7078
:101EE4000F4B1D70FFF7DAFA0E48FFF7B9F801201F
:101EF400FFF772FA0C4B0D4A596AB9391180596AC5
:101F04000B4A11805A6A0B4B1A80FFF7D1FA01234E
:101F1400094C2370FFF748FC257070BD19000020A0
:101F24001800002030750000002C01402200002021
:101F3400200000201E0000202E000020F0B58C4B55
:101F44008C4C5E6A237887B005900093002B12D0E6
:101F5400FFF7A4FAFFF72EF800280AD0FEF756FF81
:101F6400002323700124844B1C70FFF7A1FA834BD8
:101F74001C7007B0F0BD824B1A69824B120700D562
:101F8400D1E001221A70804B009A1A7000247F4B12
:101F94001B78002B05D0002C00D1D4E00120FFF7E2
:101FA4001BFA754DB6B22B780193002B00D10BE1CF
:101FB400FFF706F8002801D000232B70734B1B7821
:101FC400002B00D0CEE1002C00D043E20022704B65
:101FD4001A70FFF763FA6F4A1388F31A9BB2E52B62
:101FE4003AD96D4B6D4D1B68168003936C4B1B687F
:101FF40004936C4B05936B7A002B26D02B680193CA
:10200400019A039B9C1A6B680293029A049B9F1A81
:10201400002C00DD3FE200D03FE2002F00DD3FE274
:1020240000D03FE2019B02991C192000FFF77CF9C4
:10203400002801D02C600194029B0198DC19210036
:10204400FFF772F9002800D06C60059B0C35AB4299
:10205400D1D10122494B1A7082225348920003883D
:10206400F31A9BB2934225D34B4B4C4A1C684C4BFE
:102074001D684E4B9C46537A002B00D11DE2136819
:102084001B1BD9175B184B405168491BCF17C91943
:1020940079405B18634500DD0FE2454A06801378FA
:1020A400082B00D801E2083B13700122414B1A703F
:1020B400324B1A70354C2378002B01D0FFF7EEF920
:1020C40000233D4AD15C002907D10C33302BF9D1D0
:1020D4003A4B1A88002A00D11E80384B1B88002BEB
:1020E40008D0E122F31A9BB2D200934202D300201B
:1020F400FFF772F9214D2B78002B00D1E6E1FFF7B1
:1021040053FB00232E4A2B701378002B06D0013B7F
:10211400DBB21370002B01D001232B702378002B2A
:1021240000D126E718E01B78002B00D12EE7164BD0
:102134001C78012C02D80134E4B21C70013C631EEB
:102144009C41E4B223E7FEF735FF002800D025E7E1
:102154000F4B1C70FFF7A2F91A4B1B78002B00D011
:1021640007E7FFF739FA0122164B1A7001E7C04658
:10217400002C01402F0000202D0000202E00002004
:10218400000801401700002016000020360000203F
:1021940018000020200000204000002094070020A8
:1021A4003C000020C40700201E0000209708000007
:1021B4003A000020350000209D0700201C0000206C
:1021C400340000202C000020FEF7F4FEC34D00284C
:1021D40015D0C34B019A1E80C24B1A702B78002B6A
:1021E40000D1B1E09622C04B52001B88F31A9BB277
:1021F400934200D99FE02C3ABC4BFF3A1A70FEF789
:10220400D3FE00284ED0B64B1B88F31A9BB2902BFA
:1022140048D9B44A1378002B05D0B54B1B88F31A60
:102224009BB2632B3ED901231370B04A1378002B61
:1022340005D0B0490B780E330B70002313700023C4
:10224400AD4A2B701370AA4B1E80AA4B1D78280030
:102254004030C0B2FFF73EF807002800C325FFF75F
:1022640039F86D006F43A54B454304931B683F1336
:102274000293FB18A24F2D133968180003936D18AD
:10228400FFF752F8002803D0039A049B02921A60C5
:1022940029000298FFF748F8002800D03D60012289
:1022A400984B1A70FEF78CFE8C4A002824D08D4B74
:1022B400197800291CD18D4B1B78002B47D08D48F1
:1022C4001170037801310E3B03708E4B19708E48E8
:1022D4008E4D03888849F31A9BB2AB4201D900237F
:1022E4000B700B7806800133DBB2092B34D80B70EA
:1022F40000217E4B019819701378002B10D0962181
:10230400794B49001B88F31A9BB28B4208D90023EE
:102314001370784A13780E3313700122794B1A70B4
:10232400002800D14AE6FFF7B9F80122784B1A7069
:10233400FEF748FD1DE66F4A13780E331370012231
:10234400019B2B706F4B1A700022684B56E70123D8
:102354001370654B1E80BAE700230B7013700133B2
:102364000193C5E7002C00D130E6FFF797F8694BDD
:102374001B88F31A9BB2B82B00D82CE6664A137854
:10238400002B00D127E6013B13700222634B012589
:102394001A70634B013A1A705A4B6D421A70554BBE
:1023A4001C7820004030C0B2FEF794FF0390200058
:1023B400FEF790FFAF220024504B92001B68844626
:1023C40002934F4B57481B680493574BDB8F9B1862
:1023D4000593564B0193437A002B23D0049A436808
:1023E40001689B1A1F00029BCA1A039B534362464F
:1023F4007A439A18002A15DD029B591A63465943F9
:10240400039B7B43CB18D9175B184B409B009A4224
:1024140008DD059913138B4204DC019B934201DD13
:102424002500019201340C30042CD4D16B1C0ED045
:102434000C226A433B4B9B181A7A013AD2B21A72A5
:10244400002A04D15A723A4A137801331370314B7B
:102454001E80C0E5374B1A78002A0DD1364A12780F
:10246400002A84D101321A70344B1E80059BDB078D
:102474000ED4FEF72DFD7AE7E122304BD2001B8803
:10248400F31A9BB29342F1D301222B4B1A706CE7DF
:10249400FEF724FD6BE75C24BFE55C246442BCE5E5
:1024A4005C27BFE55C277F42BCE500211170012257
:1024B400234B1A70234B1970F7E5009B0C32013340
:1024C400DBB20093042B00D0D5E5F3E5144B1B7865
:1024D400002B00D122E6FFF7FFF81FE633000020AF
:1024E4002A000020320000202800002031000020B3
:1024F400240000203B000020300000204000002089
:102504003C0000202E000020260000209808000037
:102514002F00002022000020390000203400002079
:10252400350000209407002036070020FFFFFF7FBE
:102534003800002019000020180000201A00002094
:10254400360000202C00002070B50024FDF78AFF1F
:10255400FEF790F8FEF7FCFE0E4B1C70FEF79EFF94
:102564000D4B1C70FEF7A4FF0C4D2B78A34201D039
:102574000B4B1C7001260B4C2670FFF715F900233A
:1025840023702B78002B03D0FFF726F8044B1E7022
:1025940070BDC046180000202F0000203600002027
:1025A4002C0000202E000020594F5520444945445A
:1025B400004452415720544F2052455354415254E1
:1025C40000485000444F4F4D00414D4D4F004B4982
:1025D4004C4C53004152454120434C45415200026A
:1025E4000507050506050605060304040403060598
:1025F4000505060704060407070406040403040586
:102604000503050507050507020202070101010587
:102614000205050605050404040407050707050566
:102624000507070705020505050206050604040259
:10263400050507030605060505030402010607024E
:10264400020202050505050705050505020505073E
:102654000705050502050505050202020701020436
:10266400070705050507020602020706010204071B
:102674000601030106050507010107040601060317
:102684000406050207010202020205020502020510
:102694000301060002000200000007000020204899
:1026A40020202020202048202000204848202020CE
:1026B400202020484820002048484420202020444E
:1026C40048482000202044444444444444442020B6
:1026D4000020444442424242424244442000444492
:1026E40042424242424242424444004442425959D4
:1026F4004242595942424400444242445942425996
:1027040044424244004442424242424242424242E1
:10271400440044424242424444424242424400440D
:1027240044424242424242424244440044424C4CAB
:10273400424242424C4C42440044424C4242424295
:1027440042424C42440048444C4242424242424C7F
:102754004448002044444442424242444444200009
:102764002020444442424242444420200020204449
:102774004242444442424420200020204442422019
:102784002042424420200020444442442020444229
:102794004444200020484844202020204448482025
:1027A400000000000018000000480000008800003D
:1027B4000078000000580000007800000078000055
:1027C40000280000010101010101010101010100D2
:1027D40000000000000000010100020200030002EA
:1027E40000010100000200030002000101030000D7
:1027F40000000000000101030002030302000301C2
:1028040001000002000002000001010002020002B7
:1028140002000001010000000000000000010101AD
:10282400010101010101010100006500C9002D0140
:102834009101F5015902BC021F038103E30344041F
:10284400A50405056405C2051F067C06D7063207E4
:102854008B07E3073A088F08E40837098809D80981
:10286400260A730ABF0A080B500B970BDB0B1E0CCE
:102874005E0C9D0CDA0C150D4E0D850DB90DEC0D8D
:102884001C0E4B0E770EA10EC80EEE0E110F310F5B
:10289400500F6C0F850F9C0FB10FC40FD40FE10FB5
:0C28A400EC0FF50FFB0FFF0F0010000001
:04000005080003A14B
:00000001FF
